{
  "_format": "hh-sol-artifact-1",
  "contractName": "Escrow",
  "sourceName": "contracts/Escrow.sol",
  "abi": [
    {
      "anonymous": false,
      "inputs": [
        {
          "indexed": true,
          "internalType": "string",
          "name": "demandId",
          "type": "string"
        }
      ],
      "name": "EscrowAccepted",
      "type": "event"
    },
    {
      "anonymous": false,
      "inputs": [
        {
          "indexed": true,
          "internalType": "string",
          "name": "demandId",
          "type": "string"
        },
        {
          "indexed": true,
          "internalType": "address",
          "name": "payer",
          "type": "address"
        },
        {
          "indexed": false,
          "internalType": "address",
          "name": "token",
          "type": "address"
        },
        {
          "indexed": false,
          "internalType": "uint256",
          "name": "amount",
          "type": "uint256"
        }
      ],
      "name": "EscrowCreated",
      "type": "event"
    },
    {
      "anonymous": false,
      "inputs": [
        {
          "indexed": true,
          "internalType": "string",
          "name": "demandId",
          "type": "string"
        },
        {
          "indexed": false,
          "internalType": "string",
          "name": "reason",
          "type": "string"
        }
      ],
      "name": "EscrowDisputed",
      "type": "event"
    },
    {
      "anonymous": false,
      "inputs": [
        {
          "indexed": true,
          "internalType": "string",
          "name": "demandId",
          "type": "string"
        },
        {
          "indexed": false,
          "internalType": "address[]",
          "name": "contributors",
          "type": "address[]"
        },
        {
          "indexed": false,
          "internalType": "uint256[]",
          "name": "shares",
          "type": "uint256[]"
        }
      ],
      "name": "EscrowDistributed",
      "type": "event"
    },
    {
      "anonymous": false,
      "inputs": [
        {
          "indexed": true,
          "internalType": "string",
          "name": "demandId",
          "type": "string"
        },
        {
          "indexed": false,
          "internalType": "uint256",
          "name": "amount",
          "type": "uint256"
        }
      ],
      "name": "EscrowFunded",
      "type": "event"
    },
    {
      "anonymous": false,
      "inputs": [
        {
          "indexed": true,
          "internalType": "string",
          "name": "demandId",
          "type": "string"
        }
      ],
      "name": "WorkSubmitted",
      "type": "event"
    },
    {
      "inputs": [
        {
          "internalType": "string",
          "name": "_demandId",
          "type": "string"
        },
        {
          "internalType": "address[]",
          "name": "_contributors",
          "type": "address[]"
        },
        {
          "internalType": "uint256[]",
          "name": "_shares",
          "type": "uint256[]"
        }
      ],
      "name": "accept",
      "outputs": [],
      "stateMutability": "nonpayable",
      "type": "function"
    },
    {
      "inputs": [
        {
          "internalType": "string",
          "name": "_demandId",
          "type": "string"
        },
        {
          "internalType": "address",
          "name": "_token",
          "type": "address"
        },
        {
          "internalType": "uint256",
          "name": "_amount",
          "type": "uint256"
        }
      ],
      "name": "createEscrow",
      "outputs": [],
      "stateMutability": "nonpayable",
      "type": "function"
    },
    {
      "inputs": [
        {
          "internalType": "string",
          "name": "_demandId",
          "type": "string"
        },
        {
          "internalType": "string",
          "name": "reason",
          "type": "string"
        }
      ],
      "name": "dispute",
      "outputs": [],
      "stateMutability": "nonpayable",
      "type": "function"
    },
    {
      "inputs": [
        {
          "internalType": "string",
          "name": "",
          "type": "string"
        }
      ],
      "name": "escrows",
      "outputs": [
        {
          "internalType": "address",
          "name": "payer",
          "type": "address"
        },
        {
          "internalType": "address",
          "name": "token",
          "type": "address"
        },
        {
          "internalType": "uint256",
          "name": "amount",
          "type": "uint256"
        },
        {
          "internalType": "enum Escrow.State",
          "name": "state",
          "type": "uint8"
        },
        {
          "internalType": "string",
          "name": "demandId",
          "type": "string"
        }
      ],
      "stateMutability": "view",
      "type": "function"
    },
    {
      "inputs": [
        {
          "internalType": "string",
          "name": "_demandId",
          "type": "string"
        }
      ],
      "name": "fund",
      "outputs": [],
      "stateMutability": "nonpayable",
      "type": "function"
    },
    {
      "inputs": [
        {
          "internalType": "string",
          "name": "_demandId",
          "type": "string"
        }
      ],
      "name": "getEscrow",
      "outputs": [
        {
          "components": [
            {
              "internalType": "address",
              "name": "payer",
              "type": "address"
            },
            {
              "internalType": "address",
              "name": "token",
              "type": "address"
            },
            {
              "internalType": "uint256",
              "name": "amount",
              "type": "uint256"
            },
            {
              "internalType": "enum Escrow.State",
              "name": "state",
              "type": "uint8"
            },
            {
              "internalType": "string",
              "name": "demandId",
              "type": "string"
            },
            {
              "internalType": "address[]",
              "name": "contributors",
              "type": "address[]"
            },
            {
              "internalType": "uint256[]",
              "name": "shares",
              "type": "uint256[]"
            }
          ],
          "internalType": "struct Escrow.EscrowData",
          "name": "",
          "type": "tuple"
        }
      ],
      "stateMutability": "view",
      "type": "function"
    },
    {
      "inputs": [
        {
          "internalType": "string",
          "name": "_demandId",
          "type": "string"
        }
      ],
      "name": "submitWork",
      "outputs": [],
      "stateMutability": "nonpayable",
      "type": "function"
    }
  ],
  "bytecode": "0x6080604052348015600f57600080fd5b506114dd8061001f6000396000f3fe608060405234801561001057600080fd5b506004361061007d5760003560e01c806373451f651161005b57806373451f65146100d757806385aaedf4146100ea578063969631d5146100fd578063f93a1c221461011d57600080fd5b8063095da7f6146100825780635cc9f864146100975780636a18c6e2146100c4575b600080fd5b610095610090366004610db7565b610130565b005b6100aa6100a5366004610db7565b6101fd565b6040516100bb959493929190610e7c565b60405180910390f35b6100956100d2366004610ec5565b6102d3565b6100956100e5366004610db7565b6103d7565b6100956100f8366004610fdb565b6104d7565b61011061010b366004610db7565b610822565b6040516100bb9190611146565b61009561012b3660046111e8565b610a38565b600080826040516101419190611240565b90815260405190819003602001902090506001600382015460ff16600681111561016d5761016d610df4565b146101ac5760405162461bcd60e51b815260206004820152600a602482015269139bdd08199d5b99195960b21b60448201526064015b60405180910390fd5b60038101805460ff191660021790556040516101c9908390611240565b604051908190038120907f9d0581297f0ce789714b600feee27278aa53d55e6834cf60265df447fb5bdb5f90600090a25050565b805180820160209081018051600082529282019190930120915280546001820154600283015460038401546004850180546001600160a01b03958616969490951694929360ff909216926102509061125c565b80601f016020809104026020016040519081016040528092919081815260200182805461027c9061125c565b80156102c95780601f1061029e576101008083540402835291602001916102c9565b820191906000526020600020905b8154815290600101906020018083116102ac57829003601f168201915b5050505050905085565b600080836040516102e49190611240565b90815260405190819003602001902090506002600382015460ff16600681111561031057610310610df4565b1461034d5760405162461bcd60e51b815260206004820152600d60248201526c139bdd081cdd589b5a5d1d1959609a1b60448201526064016101a3565b80546001600160a01b031633146103765760405162461bcd60e51b81526004016101a390611296565b60038101805460ff19166004179055604051610393908490611240565b60405180910390207f2e69bcabc8d68b83d4daa536452332572ba3bde9f1bbb0989d0323be770607d0836040516103ca91906112ba565b60405180910390a2505050565b600080826040516103e89190611240565b90815260405190819003602001902090506000600382015460ff16600681111561041457610414610df4565b1461044f5760405162461bcd60e51b815260206004820152600b60248201526a139bdd0818dc99585d195960aa1b60448201526064016101a3565b80546001600160a01b031633146104785760405162461bcd60e51b81526004016101a390611296565b60038101805460ff19166001179055604051610495908390611240565b60405190819003812060028301548252907f1417fabb9f4c5205f743fe780eb43928a104db616432c6a17cda1634f72135f59060200160405180910390a25050565b600080846040516104e89190611240565b90815260405190819003602001902090506002600382015460ff16600681111561051457610514610df4565b146105515760405162461bcd60e51b815260206004820152600d60248201526c139bdd081cdd589b5a5d1d1959609a1b60448201526064016101a3565b80546001600160a01b0316331461057a5760405162461bcd60e51b81526004016101a390611296565b81518351146105bd5760405162461bcd60e51b815260206004820152600f60248201526e098cadccee8d040dad2e6dac2e8c6d608b1b60448201526064016101a3565b6000805b83518110156105f9578381815181106105dc576105dc6112d4565b6020026020010151826105ef9190611300565b91506001016105c1565b50806127101461064b5760405162461bcd60e51b815260206004820152601860248201527f536861726573206d7573742073756d20746f203130303030000000000000000060448201526064016101a3565b83516106609060058401906020870190610c4b565b5082516106769060068401906020860190610cb0565b506003828101805460ff19169091179055604051610695908690611240565b604051908190038120907f20a0416058b9de3ef224f839147c572ceb71ce876d3e438a5c08bcef22e591c690600090a260005b84518110156107bc5760006127108583815181106106e8576106e86112d4565b602002602001015185600201546106ff9190611319565b6107099190611330565b600185015487519192506001600160a01b03169063a9059cbb90889085908110610735576107356112d4565b6020026020010151836040518363ffffffff1660e01b815260040161076f9291906001600160a01b03929092168252602082015260400190565b6020604051808303816000875af115801561078e573d6000803e3d6000fd5b505050506040513d601f19601f820116820180604052508101906107b29190611352565b50506001016106c8565b5060038201805460ff191660051790556040516107da908690611240565b60405180910390207f689984c31976b29b7d364e0c59d64c797c6a34c910e645648871bff4b6555efd8585604051610813929190611374565b60405180910390a25050505050565b6108626040805160e08101825260008082526020820181905291810182905290606082019081526020016060815260200160608152602001606081525090565b6000826040516108729190611240565b90815260408051918290036020908101832060e08401835280546001600160a01b039081168552600182015416918401919091526002810154918301919091526003810154606083019060ff1660068111156108d0576108d0610df4565b60068111156108e1576108e1610df4565b81526020016004820180546108f59061125c565b80601f01602080910402602001604051908101604052809291908181526020018280546109219061125c565b801561096e5780601f106109435761010080835404028352916020019161096e565b820191906000526020600020905b81548152906001019060200180831161095157829003601f168201915b50505050508152602001600582018054806020026020016040519081016040528092919081815260200182805480156109d057602002820191906000526020600020905b81546001600160a01b031681526001909101906020018083116109b2575b5050505050815260200160068201805480602002602001604051908101604052809291908181526020018280548015610a2857602002820191906000526020600020905b815481526020019060010190808311610a14575b5050505050815250509050919050565b60008111610a7d5760405162461bcd60e51b81526020600482015260126024820152710416d6f756e74206d757374206265203e20360741b60448201526064016101a3565b6040805160e0810182523381526001600160a01b03841660208201529081018290526060810160008152602081018590526040016000604051908082528060200260200182016040528015610adc578160200160208202803683370190505b5081526020016000604051908082528060200260200182016040528015610b0d578160200160208202803683370190505b50815250600084604051610b219190611240565b9081526040805160209281900383019020835181546001600160a01b03199081166001600160a01b0392831617835593850151600180840180549096169190921617909355908301516002820155606083015160038201805492939192909160ff1990911690836006811115610b9957610b99610df4565b021790555060808201516004820190610bb290826113e8565b5060a08201518051610bce916005840191602090910190610c4b565b5060c08201518051610bea916006840191602090910190610cb0565b5050604051339150610bfd908590611240565b604080519182900382206001600160a01b038616835260208301859052917f9062b83a56b397ec370db5c549d1d04542fe3e79c4b85505b8a2a70c8a5d86f1910160405180910390a3505050565b828054828255906000526020600020908101928215610ca0579160200282015b82811115610ca057825182546001600160a01b0319166001600160a01b03909116178255602090920191600190910190610c6b565b50610cac929150610ceb565b5090565b828054828255906000526020600020908101928215610ca0579160200282015b82811115610ca0578251825591602001919060010190610cd0565b5b80821115610cac5760008155600101610cec565b634e487b7160e01b600052604160045260246000fd5b604051601f8201601f1916810167ffffffffffffffff81118282101715610d3f57610d3f610d00565b604052919050565b600082601f830112610d5857600080fd5b813567ffffffffffffffff811115610d7257610d72610d00565b610d85601f8201601f1916602001610d16565b818152846020838601011115610d9a57600080fd5b816020850160208301376000918101602001919091529392505050565b600060208284031215610dc957600080fd5b813567ffffffffffffffff811115610de057600080fd5b610dec84828501610d47565b949350505050565b634e487b7160e01b600052602160045260246000fd5b60078110610e2857634e487b7160e01b600052602160045260246000fd5b9052565b60005b83811015610e47578181015183820152602001610e2f565b50506000910152565b60008151808452610e68816020860160208601610e2c565b601f01601f19169290920160200192915050565b6001600160a01b0386811682528516602082015260408101849052610ea46060820184610e0a565b60a060808201526000610eba60a0830184610e50565b979650505050505050565b60008060408385031215610ed857600080fd5b823567ffffffffffffffff811115610eef57600080fd5b610efb85828601610d47565b925050602083013567ffffffffffffffff811115610f1857600080fd5b610f2485828601610d47565b9150509250929050565b600067ffffffffffffffff821115610f4857610f48610d00565b5060051b60200190565b80356001600160a01b0381168114610f6957600080fd5b919050565b600082601f830112610f7f57600080fd5b8135610f92610f8d82610f2e565b610d16565b8082825260208201915060208360051b860101925085831115610fb457600080fd5b602085015b83811015610fd1578035835260209283019201610fb9565b5095945050505050565b600080600060608486031215610ff057600080fd5b833567ffffffffffffffff81111561100757600080fd5b61101386828701610d47565b935050602084013567ffffffffffffffff81111561103057600080fd5b8401601f8101861361104157600080fd5b803561104f610f8d82610f2e565b8082825260208201915060208360051b85010192508883111561107157600080fd5b6020840193505b8284101561109a5761108984610f52565b825260209384019390910190611078565b9450505050604084013567ffffffffffffffff8111156110b957600080fd5b6110c586828701610f6e565b9150509250925092565b600081518084526020840193506020830160005b8281101561110a5781516001600160a01b03168652602095860195909101906001016110e3565b5093949350505050565b600081518084526020840193506020830160005b8281101561110a578151865260209586019590910190600101611128565b6020815260018060a01b03825116602082015260018060a01b03602083015116604082015260408201516060820152600060608301516111896080840182610e0a565b50608083015160e060a08401526111a4610100840182610e50565b905060a0840151601f198483030160c08501526111c182826110cf565b91505060c0840151601f198483030160e08501526111df8282611114565b95945050505050565b6000806000606084860312156111fd57600080fd5b833567ffffffffffffffff81111561121457600080fd5b61122086828701610d47565b93505061122f60208501610f52565b929592945050506040919091013590565b60008251611252818460208701610e2c565b9190910192915050565b600181811c9082168061127057607f821691505b60208210810361129057634e487b7160e01b600052602260045260246000fd5b50919050565b6020808252600a908201526927b7363c903830bcb2b960b11b604082015260600190565b6020815260006112cd6020830184610e50565b9392505050565b634e487b7160e01b600052603260045260246000fd5b634e487b7160e01b600052601160045260246000fd5b80820180821115611313576113136112ea565b92915050565b8082028115828204841417611313576113136112ea565b60008261134d57634e487b7160e01b600052601260045260246000fd5b500490565b60006020828403121561136457600080fd5b815180151581146112cd57600080fd5b60408152600061138760408301856110cf565b82810360208401526111df8185611114565b601f8211156113e357806000526020600020601f840160051c810160208510156113c05750805b601f840160051c820191505b818110156113e057600081556001016113cc565b50505b505050565b815167ffffffffffffffff81111561140257611402610d00565b61141681611410845461125c565b84611399565b6020601f82116001811461144a57600083156114325750848201515b600019600385901b1c1916600184901b1784556113e0565b600084815260208120601f198516915b8281101561147a578785015182556020948501946001909201910161145a565b50848210156114985786840151600019600387901b60f8161c191681555b50505050600190811b0190555056fea264697066735822122091067b16c81f282653026de9122ad83e08a828347c3d244ff87cbe69822aa91364736f6c634300081b0033",
  "linkReferences": {},
  "deployedLinkReferences": {}
}