{
  "_format": "hh-sol-artifact-1",
  "contractName": "NEXLToken",
  "sourceName": "contracts/NEXLToken.sol",
  "abi": [
    {
      "inputs": [
        {
          "internalType": "address",
          "name": "initialOwner",
          "type": "address"
        },
        {
          "internalType": "uint256",
          "name": "initialSupply",
          "type": "uint256"
        }
      ],
      "stateMutability": "nonpayable",
      "type": "constructor"
    },
    {
      "inputs": [],
      "name": "InvalidShortString",
      "type": "error"
    },
    {
      "inputs": [
        {
          "internalType": "string",
          "name": "str",
          "type": "string"
        }
      ],
      "name": "StringTooLong",
      "type": "error"
    },
    {
      "anonymous": false,
      "inputs": [
        {
          "indexed": true,
          "internalType": "address",
          "name": "owner",
          "type": "address"
        },
        {
          "indexed": true,
          "internalType": "address",
          "name": "spender",
          "type": "address"
        },
        {
          "indexed": false,
          "internalType": "uint256",
          "name": "value",
          "type": "uint256"
        }
      ],
      "name": "Approval",
      "type": "event"
    },
    {
      "anonymous": false,
      "inputs": [
        {
          "indexed": true,
          "internalType": "address",
          "name": "delegator",
          "type": "address"
        },
        {
          "indexed": true,
          "internalType": "address",
          "name": "fromDelegate",
          "type": "address"
        },
        {
          "indexed": true,
          "internalType": "address",
          "name": "toDelegate",
          "type": "address"
        }
      ],
      "name": "DelegateChanged",
      "type": "event"
    },
    {
      "anonymous": false,
      "inputs": [
        {
          "indexed": true,
          "internalType": "address",
          "name": "delegate",
          "type": "address"
        },
        {
          "indexed": false,
          "internalType": "uint256",
          "name": "previousBalance",
          "type": "uint256"
        },
        {
          "indexed": false,
          "internalType": "uint256",
          "name": "newBalance",
          "type": "uint256"
        }
      ],
      "name": "DelegateVotesChanged",
      "type": "event"
    },
    {
      "anonymous": false,
      "inputs": [],
      "name": "EIP712DomainChanged",
      "type": "event"
    },
    {
      "anonymous": false,
      "inputs": [
        {
          "indexed": true,
          "internalType": "address",
          "name": "previousOwner",
          "type": "address"
        },
        {
          "indexed": true,
          "internalType": "address",
          "name": "newOwner",
          "type": "address"
        }
      ],
      "name": "OwnershipTransferred",
      "type": "event"
    },
    {
      "anonymous": false,
      "inputs": [
        {
          "indexed": true,
          "internalType": "address",
          "name": "from",
          "type": "address"
        },
        {
          "indexed": true,
          "internalType": "address",
          "name": "to",
          "type": "address"
        },
        {
          "indexed": false,
          "internalType": "uint256",
          "name": "value",
          "type": "uint256"
        }
      ],
      "name": "Transfer",
      "type": "event"
    },
    {
      "inputs": [],
      "name": "CLOCK_MODE",
      "outputs": [
        {
          "internalType": "string",
          "name": "",
          "type": "string"
        }
      ],
      "stateMutability": "view",
      "type": "function"
    },
    {
      "inputs": [],
      "name": "DOMAIN_SEPARATOR",
      "outputs": [
        {
          "internalType": "bytes32",
          "name": "",
          "type": "bytes32"
        }
      ],
      "stateMutability": "view",
      "type": "function"
    },
    {
      "inputs": [
        {
          "internalType": "address",
          "name": "owner",
          "type": "address"
        },
        {
          "internalType": "address",
          "name": "spender",
          "type": "address"
        }
      ],
      "name": "allowance",
      "outputs": [
        {
          "internalType": "uint256",
          "name": "",
          "type": "uint256"
        }
      ],
      "stateMutability": "view",
      "type": "function"
    },
    {
      "inputs": [
        {
          "internalType": "address",
          "name": "spender",
          "type": "address"
        },
        {
          "internalType": "uint256",
          "name": "amount",
          "type": "uint256"
        }
      ],
      "name": "approve",
      "outputs": [
        {
          "internalType": "bool",
          "name": "",
          "type": "bool"
        }
      ],
      "stateMutability": "nonpayable",
      "type": "function"
    },
    {
      "inputs": [
        {
          "internalType": "address",
          "name": "account",
          "type": "address"
        }
      ],
      "name": "balanceOf",
      "outputs": [
        {
          "internalType": "uint256",
          "name": "",
          "type": "uint256"
        }
      ],
      "stateMutability": "view",
      "type": "function"
    },
    {
      "inputs": [
        {
          "internalType": "address",
          "name": "account",
          "type": "address"
        },
        {
          "internalType": "uint32",
          "name": "pos",
          "type": "uint32"
        }
      ],
      "name": "checkpoints",
      "outputs": [
        {
          "components": [
            {
              "internalType": "uint32",
              "name": "fromBlock",
              "type": "uint32"
            },
            {
              "internalType": "uint224",
              "name": "votes",
              "type": "uint224"
            }
          ],
          "internalType": "struct ERC20Votes.Checkpoint",
          "name": "",
          "type": "tuple"
        }
      ],
      "stateMutability": "view",
      "type": "function"
    },
    {
      "inputs": [],
      "name": "clock",
      "outputs": [
        {
          "internalType": "uint48",
          "name": "",
          "type": "uint48"
        }
      ],
      "stateMutability": "view",
      "type": "function"
    },
    {
      "inputs": [],
      "name": "decimals",
      "outputs": [
        {
          "internalType": "uint8",
          "name": "",
          "type": "uint8"
        }
      ],
      "stateMutability": "view",
      "type": "function"
    },
    {
      "inputs": [
        {
          "internalType": "address",
          "name": "spender",
          "type": "address"
        },
        {
          "internalType": "uint256",
          "name": "subtractedValue",
          "type": "uint256"
        }
      ],
      "name": "decreaseAllowance",
      "outputs": [
        {
          "internalType": "bool",
          "name": "",
          "type": "bool"
        }
      ],
      "stateMutability": "nonpayable",
      "type": "function"
    },
    {
      "inputs": [
        {
          "internalType": "address",
          "name": "delegatee",
          "type": "address"
        }
      ],
      "name": "delegate",
      "outputs": [],
      "stateMutability": "nonpayable",
      "type": "function"
    },
    {
      "inputs": [
        {
          "internalType": "address",
          "name": "delegatee",
          "type": "address"
        },
        {
          "internalType": "uint256",
          "name": "nonce",
          "type": "uint256"
        },
        {
          "internalType": "uint256",
          "name": "expiry",
          "type": "uint256"
        },
        {
          "internalType": "uint8",
          "name": "v",
          "type": "uint8"
        },
        {
          "internalType": "bytes32",
          "name": "r",
          "type": "bytes32"
        },
        {
          "internalType": "bytes32",
          "name": "s",
          "type": "bytes32"
        }
      ],
      "name": "delegateBySig",
      "outputs": [],
      "stateMutability": "nonpayable",
      "type": "function"
    },
    {
      "inputs": [
        {
          "internalType": "address",
          "name": "account",
          "type": "address"
        }
      ],
      "name": "delegates",
      "outputs": [
        {
          "internalType": "address",
          "name": "",
          "type": "address"
        }
      ],
      "stateMutability": "view",
      "type": "function"
    },
    {
      "inputs": [],
      "name": "eip712Domain",
      "outputs": [
        {
          "internalType": "bytes1",
          "name": "fields",
          "type": "bytes1"
        },
        {
          "internalType": "string",
          "name": "name",
          "type": "string"
        },
        {
          "internalType": "string",
          "name": "version",
          "type": "string"
        },
        {
          "internalType": "uint256",
          "name": "chainId",
          "type": "uint256"
        },
        {
          "internalType": "address",
          "name": "verifyingContract",
          "type": "address"
        },
        {
          "internalType": "bytes32",
          "name": "salt",
          "type": "bytes32"
        },
        {
          "internalType": "uint256[]",
          "name": "extensions",
          "type": "uint256[]"
        }
      ],
      "stateMutability": "view",
      "type": "function"
    },
    {
      "inputs": [
        {
          "internalType": "uint256",
          "name": "timepoint",
          "type": "uint256"
        }
      ],
      "name": "getPastTotalSupply",
      "outputs": [
        {
          "internalType": "uint256",
          "name": "",
          "type": "uint256"
        }
      ],
      "stateMutability": "view",
      "type": "function"
    },
    {
      "inputs": [
        {
          "internalType": "address",
          "name": "account",
          "type": "address"
        },
        {
          "internalType": "uint256",
          "name": "timepoint",
          "type": "uint256"
        }
      ],
      "name": "getPastVotes",
      "outputs": [
        {
          "internalType": "uint256",
          "name": "",
          "type": "uint256"
        }
      ],
      "stateMutability": "view",
      "type": "function"
    },
    {
      "inputs": [
        {
          "internalType": "address",
          "name": "account",
          "type": "address"
        }
      ],
      "name": "getVotes",
      "outputs": [
        {
          "internalType": "uint256",
          "name": "",
          "type": "uint256"
        }
      ],
      "stateMutability": "view",
      "type": "function"
    },
    {
      "inputs": [
        {
          "internalType": "address",
          "name": "spender",
          "type": "address"
        },
        {
          "internalType": "uint256",
          "name": "addedValue",
          "type": "uint256"
        }
      ],
      "name": "increaseAllowance",
      "outputs": [
        {
          "internalType": "bool",
          "name": "",
          "type": "bool"
        }
      ],
      "stateMutability": "nonpayable",
      "type": "function"
    },
    {
      "inputs": [
        {
          "internalType": "address",
          "name": "to",
          "type": "address"
        },
        {
          "internalType": "uint256",
          "name": "amount",
          "type": "uint256"
        }
      ],
      "name": "mint",
      "outputs": [],
      "stateMutability": "nonpayable",
      "type": "function"
    },
    {
      "inputs": [],
      "name": "name",
      "outputs": [
        {
          "internalType": "string",
          "name": "",
          "type": "string"
        }
      ],
      "stateMutability": "view",
      "type": "function"
    },
    {
      "inputs": [
        {
          "internalType": "address",
          "name": "owner",
          "type": "address"
        }
      ],
      "name": "nonces",
      "outputs": [
        {
          "internalType": "uint256",
          "name": "",
          "type": "uint256"
        }
      ],
      "stateMutability": "view",
      "type": "function"
    },
    {
      "inputs": [
        {
          "internalType": "address",
          "name": "account",
          "type": "address"
        }
      ],
      "name": "numCheckpoints",
      "outputs": [
        {
          "internalType": "uint32",
          "name": "",
          "type": "uint32"
        }
      ],
      "stateMutability": "view",
      "type": "function"
    },
    {
      "inputs": [],
      "name": "owner",
      "outputs": [
        {
          "internalType": "address",
          "name": "",
          "type": "address"
        }
      ],
      "stateMutability": "view",
      "type": "function"
    },
    {
      "inputs": [
        {
          "internalType": "address",
          "name": "owner",
          "type": "address"
        },
        {
          "internalType": "address",
          "name": "spender",
          "type": "address"
        },
        {
          "internalType": "uint256",
          "name": "value",
          "type": "uint256"
        },
        {
          "internalType": "uint256",
          "name": "deadline",
          "type": "uint256"
        },
        {
          "internalType": "uint8",
          "name": "v",
          "type": "uint8"
        },
        {
          "internalType": "bytes32",
          "name": "r",
          "type": "bytes32"
        },
        {
          "internalType": "bytes32",
          "name": "s",
          "type": "bytes32"
        }
      ],
      "name": "permit",
      "outputs": [],
      "stateMutability": "nonpayable",
      "type": "function"
    },
    {
      "inputs": [],
      "name": "renounceOwnership",
      "outputs": [],
      "stateMutability": "nonpayable",
      "type": "function"
    },
    {
      "inputs": [],
      "name": "symbol",
      "outputs": [
        {
          "internalType": "string",
          "name": "",
          "type": "string"
        }
      ],
      "stateMutability": "view",
      "type": "function"
    },
    {
      "inputs": [],
      "name": "totalSupply",
      "outputs": [
        {
          "internalType": "uint256",
          "name": "",
          "type": "uint256"
        }
      ],
      "stateMutability": "view",
      "type": "function"
    },
    {
      "inputs": [
        {
          "internalType": "address",
          "name": "to",
          "type": "address"
        },
        {
          "internalType": "uint256",
          "name": "amount",
          "type": "uint256"
        }
      ],
      "name": "transfer",
      "outputs": [
        {
          "internalType": "bool",
          "name": "",
          "type": "bool"
        }
      ],
      "stateMutability": "nonpayable",
      "type": "function"
    },
    {
      "inputs": [
        {
          "internalType": "address",
          "name": "from",
          "type": "address"
        },
        {
          "internalType": "address",
          "name": "to",
          "type": "address"
        },
        {
          "internalType": "uint256",
          "name": "amount",
          "type": "uint256"
        }
      ],
      "name": "transferFrom",
      "outputs": [
        {
          "internalType": "bool",
          "name": "",
          "type": "bool"
        }
      ],
      "stateMutability": "nonpayable",
      "type": "function"
    },
    {
      "inputs": [
        {
          "internalType": "address",
          "name": "newOwner",
          "type": "address"
        }
      ],
      "name": "transferOwnership",
      "outputs": [],
      "stateMutability": "nonpayable",
      "type": "function"
    }
  ],
  "bytecode": "0x61016060405234801561001157600080fd5b50604051612d38380380612d3883398101604081905261003091610829565b604051806040016040528060048152602001631391561360e21b81525080604051806040016040528060018152602001603160f81b815250604051806040016040528060048152602001631391561360e21b815250604051806040016040528060048152602001631391561360e21b81525081600390816100b19190610901565b5060046100be8282610901565b506100ce91508390506005610197565b610120526100dd816006610197565b61014052815160208084019190912060e052815190820120610100524660a05261016a60e05161010051604080517f8b73c3c69bb8fe3d512ecc4cf759cc79239f7b179b0ffacaa9a75d522b39400f60208201529081019290925260608201524660808201523060a082015260009060c00160405160208183030381529060405280519060200120905090565b60805250503060c0525061017d336101ca565b610186826101ca565b610190828261021c565b5050610a6d565b60006020835110156101b3576101ac8361022a565b90506101c4565b816101be8482610901565b5060ff90505b92915050565b600c80546001600160a01b038381166001600160a01b0319831681179093556040519116919082907f8be0079c531659141344cd1fd0a4f28419497f9722a3daafe3b4186f6b6457e090600090a35050565b6102268282610271565b5050565b600080829050601f8151111561025e578260405163305a27a960e01b815260040161025591906109bf565b60405180910390fd5b805161026982610a0d565b179392505050565b61027b828261030f565b6001600160e01b0361028d6103d68216565b11156102f45760405162461bcd60e51b815260206004820152603060248201527f4552433230566f7465733a20746f74616c20737570706c79207269736b73206f60448201526f766572666c6f77696e6720766f74657360801b6064820152608401610255565b610309600b610ced6103dc60201b17836103ef565b50505050565b6001600160a01b0382166103655760405162461bcd60e51b815260206004820152601f60248201527f45524332303a206d696e7420746f20746865207a65726f2061646472657373006044820152606401610255565b80600260008282546103779190610a47565b90915550506001600160a01b038216600081815260208181526040808320805486019055518481527fddf252ad1be2c89b69c2b068fc378daa952ba7f163c4a11628f55a4df523b3ef910160405180910390a36102266000838361056c565b60025490565b60006103e88284610a47565b9392505050565b8254600090819081811561043c5760008781526020902082016000190160408051808201909152905463ffffffff8116825264010000000090046001600160e01b03166020820152610451565b60408051808201909152600080825260208201525b905080602001516001600160e01b0316935061046e84868860201c565b92506000821180156104985750610483610577565b65ffffffffffff16816000015163ffffffff16145b156104dd576104a683610587565b60008881526020902083016000190180546001600160e01b03929092166401000000000263ffffffff90921691909117905561055d565b8660405180604001604052806105076104fa61057760201b60201c565b65ffffffffffff166105f4565b63ffffffff16815260200161051b86610587565b6001600160e01b0390811690915282546001810184556000938452602093849020835194909301519091166401000000000263ffffffff909316929092179101555b5050935093915050565b505050565b610567838383610659565b60006105824361068b565b905090565b60006001600160e01b038211156105f05760405162461bcd60e51b815260206004820152602760248201527f53616665436173743a2076616c756520646f65736e27742066697420696e20326044820152663234206269747360c81b6064820152608401610255565b5090565b600063ffffffff8211156105f05760405162461bcd60e51b815260206004820152602660248201527f53616665436173743a2076616c756520646f65736e27742066697420696e203360448201526532206269747360d01b6064820152608401610255565b6001600160a01b03838116600090815260096020526040808220548584168352912054610567929182169116836106f2565b600065ffffffffffff8211156105f05760405162461bcd60e51b815260206004820152602660248201527f53616665436173743a2076616c756520646f65736e27742066697420696e203460448201526538206269747360d01b6064820152608401610255565b816001600160a01b0316836001600160a01b0316141580156107145750600081115b15610567576001600160a01b03831615610799576001600160a01b0383166000908152600a6020908152604082208291610758919061081d901b610cf917856103ef565b91509150846001600160a01b0316600080516020612d18833981519152838360405161078e929190918252602082015260400190565b60405180910390a250505b6001600160a01b03821615610567576001600160a01b0382166000908152600a60209081526040822082916107d891906103dc901b610ced17856103ef565b91509150836001600160a01b0316600080516020612d18833981519152838360405161080e929190918252602082015260400190565b60405180910390a25050505050565b60006103e88284610a5a565b6000806040838503121561083c57600080fd5b82516001600160a01b038116811461085357600080fd5b6020939093015192949293505050565b634e487b7160e01b600052604160045260246000fd5b600181811c9082168061088d57607f821691505b6020821081036108ad57634e487b7160e01b600052602260045260246000fd5b50919050565b601f82111561056757806000526020600020601f840160051c810160208510156108da5750805b601f840160051c820191505b818110156108fa57600081556001016108e6565b5050505050565b81516001600160401b0381111561091a5761091a610863565b61092e816109288454610879565b846108b3565b6020601f821160018114610962576000831561094a5750848201515b600019600385901b1c1916600184901b1784556108fa565b600084815260208120601f198516915b828110156109925787850151825560209485019460019092019101610972565b50848210156109b05786840151600019600387901b60f8161c191681555b50505050600190811b01905550565b602081526000825180602084015260005b818110156109ed57602081860181015160408684010152016109d0565b506000604082850101526040601f19601f83011684010191505092915050565b805160208083015191908110156108ad5760001960209190910360031b1b16919050565b634e487b7160e01b600052601160045260246000fd5b808201808211156101c4576101c4610a31565b818103818111156101c4576101c4610a31565b60805160a05160c05160e051610100516101205161014051612251610ac760003960006107520152600061072701526000611127015260006110ff0152600061105a01526000611084015260006110ae01526122516000f3fe608060405234801561001057600080fd5b50600436106101cf5760003560e01c8063715018a6116101045780639ab24eb0116100a2578063d505accf11610071578063d505accf14610409578063dd62ed3e1461041c578063f1127ed81461042f578063f2fde38b1461046c57600080fd5b80639ab24eb0146103bd578063a457c2d7146103d0578063a9059cbb146103e3578063c3cda520146103f657600080fd5b80638da5cb5b116100de5780638da5cb5b146103725780638e539e8c1461038357806391ddadf41461039657806395d89b41146103b557600080fd5b8063715018a61461033c5780637ecebe001461034457806384b0196e1461035757600080fd5b80633a46b1a811610171578063587cde1e1161014b578063587cde1e146102945780635c19a95c146102d85780636fcfff45146102eb57806370a082311461031357600080fd5b80633a46b1a81461026457806340c10f19146102775780634bf5d7e91461028c57600080fd5b806323b872dd116101ad57806323b872dd14610227578063313ce5671461023a5780633644e51514610249578063395093511461025157600080fd5b806306fdde03146101d4578063095ea7b3146101f257806318160ddd14610215575b600080fd5b6101dc61047f565b6040516101e99190611e9e565b60405180910390f35b610205610200366004611ecd565b610511565b60405190151581526020016101e9565b6002545b6040519081526020016101e9565b610205610235366004611ef7565b61052b565b604051601281526020016101e9565b61021961054f565b61020561025f366004611ecd565b61055e565b610219610272366004611ecd565b610580565b61028a610285366004611ecd565b61060a565b005b6101dc610620565b6102c06102a2366004611f34565b6001600160a01b039081166000908152600960205260409020541690565b6040516001600160a01b0390911681526020016101e9565b61028a6102e6366004611f34565b6106b8565b6102fe6102f9366004611f34565b6106c5565b60405163ffffffff90911681526020016101e9565b610219610321366004611f34565b6001600160a01b031660009081526020819052604090205490565b61028a6106e7565b610219610352366004611f34565b6106fb565b61035f610719565b6040516101e99796959493929190611f4f565b600c546001600160a01b03166102c0565b610219610391366004611fe7565b6107a2565b61039e610809565b60405165ffffffffffff90911681526020016101e9565b6101dc610814565b6102196103cb366004611f34565b610823565b6102056103de366004611ecd565b6108a5565b6102056103f1366004611ecd565b610920565b61028a610404366004612011565b61092e565b61028a610417366004612069565b610a64565b61021961042a3660046120d4565b610bc8565b61044261043d366004612107565b610bf3565b60408051825163ffffffff1681526020928301516001600160e01b031692810192909252016101e9565b61028a61047a366004611f34565b610c77565b60606003805461048e90612147565b80601f01602080910402602001604051908101604052809291908181526020018280546104ba90612147565b80156105075780601f106104dc57610100808354040283529160200191610507565b820191906000526020600020905b8154815290600101906020018083116104ea57829003601f168201915b5050505050905090565b60003361051f818585610d05565b60019150505b92915050565b600033610539858285610e29565b610544858585610ea3565b506001949350505050565b600061055961104d565b905090565b60003361051f8185856105718383610bc8565b61057b9190612191565b610d05565b600061058a610809565b65ffffffffffff1682106105e15760405162461bcd60e51b815260206004820152601960248201527804552433230566f7465733a20667574757265206c6f6f6b757603c1b60448201526064015b60405180910390fd5b6001600160a01b0383166000908152600a602052604090206106039083611178565b9392505050565b610612611261565b61061c82826112bb565b5050565b60604361062b610809565b65ffffffffffff16146106805760405162461bcd60e51b815260206004820152601d60248201527f4552433230566f7465733a2062726f6b656e20636c6f636b206d6f646500000060448201526064016105d8565b5060408051808201909152601d81527f6d6f64653d626c6f636b6e756d6265722666726f6d3d64656661756c74000000602082015290565b6106c233826112c5565b50565b6001600160a01b0381166000908152600a60205260408120546105259061133e565b6106ef611261565b6106f960006113a7565b565b6001600160a01b038116600090815260076020526040812054610525565b60006060808280808361074d7f000000000000000000000000000000000000000000000000000000000000000060056113f9565b6107787f000000000000000000000000000000000000000000000000000000000000000060066113f9565b60408051600080825260208201909252600f60f81b9b939a50919850469750309650945092509050565b60006107ac610809565b65ffffffffffff1682106107fe5760405162461bcd60e51b815260206004820152601960248201527804552433230566f7465733a20667574757265206c6f6f6b757603c1b60448201526064016105d8565b610525600b83611178565b6000610559436114a4565b60606004805461048e90612147565b6001600160a01b0381166000908152600a60205260408120548015610892576001600160a01b0383166000908152600a6020526040902080546000198301908110610870576108706121a4565b60009182526020909120015464010000000090046001600160e01b0316610895565b60005b6001600160e01b03169392505050565b600033816108b38286610bc8565b9050838110156109135760405162461bcd60e51b815260206004820152602560248201527f45524332303a2064656372656173656420616c6c6f77616e63652062656c6f77604482015264207a65726f60d81b60648201526084016105d8565b6105448286868403610d05565b60003361051f818585610ea3565b8342111561097e5760405162461bcd60e51b815260206004820152601d60248201527f4552433230566f7465733a207369676e6174757265206578706972656400000060448201526064016105d8565b604080517fe48329057bfd03d55e49b547132e39cffd9c1820ad7b9d4c5307691425d15adf60208201526001600160a01b0388169181019190915260608101869052608081018590526000906109f8906109f09060a0016040516020818303038152906040528051906020012061150b565b858585611538565b9050610a0381611560565b8614610a515760405162461bcd60e51b815260206004820152601960248201527f4552433230566f7465733a20696e76616c6964206e6f6e63650000000000000060448201526064016105d8565b610a5b81886112c5565b50505050505050565b83421115610ab45760405162461bcd60e51b815260206004820152601d60248201527f45524332305065726d69743a206578706972656420646561646c696e6500000060448201526064016105d8565b60007f6e71edae12b1b97f4d1f60370fef10105fa2faae0126114a169c64845d6126c9888888610ae38c611560565b6040805160208101969096526001600160a01b0394851690860152929091166060840152608083015260a082015260c0810186905260e0016040516020818303038152906040528051906020012090506000610b3e8261150b565b90506000610b4e82878787611538565b9050896001600160a01b0316816001600160a01b031614610bb15760405162461bcd60e51b815260206004820152601e60248201527f45524332305065726d69743a20696e76616c6964207369676e6174757265000060448201526064016105d8565b610bbc8a8a8a610d05565b50505050505050505050565b6001600160a01b03918216600090815260016020908152604080832093909416825291909152205490565b60408051808201909152600080825260208201526001600160a01b0383166000908152600a60205260409020805463ffffffff8416908110610c3757610c376121a4565b60009182526020918290206040805180820190915291015463ffffffff8116825264010000000090046001600160e01b0316918101919091529392505050565b610c7f611261565b6001600160a01b038116610ce45760405162461bcd60e51b815260206004820152602660248201527f4f776e61626c653a206e6577206f776e657220697320746865207a65726f206160448201526564647265737360d01b60648201526084016105d8565b6106c2816113a7565b60006106038284612191565b600061060382846121ba565b6001600160a01b038316610d675760405162461bcd60e51b8152602060048201526024808201527f45524332303a20617070726f76652066726f6d20746865207a65726f206164646044820152637265737360e01b60648201526084016105d8565b6001600160a01b038216610dc85760405162461bcd60e51b815260206004820152602260248201527f45524332303a20617070726f766520746f20746865207a65726f206164647265604482015261737360f01b60648201526084016105d8565b6001600160a01b0383811660008181526001602090815260408083209487168084529482529182902085905590518481527f8c5be1e5ebec7d5bd14f71427d1e84f3dd0314c0f7b2291e5b200ac8c7c3b925910160405180910390a3505050565b6000610e358484610bc8565b90506000198114610e9d5781811015610e905760405162461bcd60e51b815260206004820152601d60248201527f45524332303a20696e73756666696369656e7420616c6c6f77616e636500000060448201526064016105d8565b610e9d8484848403610d05565b50505050565b6001600160a01b038316610f075760405162461bcd60e51b815260206004820152602560248201527f45524332303a207472616e736665722066726f6d20746865207a65726f206164604482015264647265737360d81b60648201526084016105d8565b6001600160a01b038216610f695760405162461bcd60e51b815260206004820152602360248201527f45524332303a207472616e7366657220746f20746865207a65726f206164647260448201526265737360e81b60648201526084016105d8565b6001600160a01b03831660009081526020819052604090205481811015610fe15760405162461bcd60e51b815260206004820152602660248201527f45524332303a207472616e7366657220616d6f756e7420657863656564732062604482015265616c616e636560d01b60648201526084016105d8565b6001600160a01b03848116600081815260208181526040808320878703905593871680835291849020805487019055925185815290927fddf252ad1be2c89b69c2b068fc378daa952ba7f163c4a11628f55a4df523b3ef910160405180910390a3610e9d84848461158d565b6000306001600160a01b037f0000000000000000000000000000000000000000000000000000000000000000161480156110a657507f000000000000000000000000000000000000000000000000000000000000000046145b156110d057507f000000000000000000000000000000000000000000000000000000000000000090565b610559604080517f8b73c3c69bb8fe3d512ecc4cf759cc79239f7b179b0ffacaa9a75d522b39400f60208201527f0000000000000000000000000000000000000000000000000000000000000000918101919091527f000000000000000000000000000000000000000000000000000000000000000060608201524660808201523060a082015260009060c00160405160208183030381529060405280519060200120905090565b8154600090818160058111156111d257600061119384611598565b61119d90856121ba565b600088815260209020909150869082015463ffffffff1611156111c2578091506111d0565b6111cd816001612191565b92505b505b8082101561121f5760006111e68383611680565b600088815260209020909150869082015463ffffffff16111561120b57809150611219565b611216816001612191565b92505b506111d2565b801561124b576000868152602090208101600019015464010000000090046001600160e01b031661124e565b60005b6001600160e01b03169695505050505050565b600c546001600160a01b031633146106f95760405162461bcd60e51b815260206004820181905260248201527f4f776e61626c653a2063616c6c6572206973206e6f7420746865206f776e657260448201526064016105d8565b61061c828261169b565b6001600160a01b038281166000818152600960208181526040808420805485845282862054949093528787166001600160a01b03198416811790915590519190951694919391928592917f3134e8a2e6d97e929a7e54011ea5485d7d196dd5f0ba4d4ef95803e8e3fc257f9190a4610e9d828483611725565b600063ffffffff8211156113a35760405162461bcd60e51b815260206004820152602660248201527f53616665436173743a2076616c756520646f65736e27742066697420696e203360448201526532206269747360d01b60648201526084016105d8565b5090565b600c80546001600160a01b038381166001600160a01b0319831681179093556040519116919082907f8be0079c531659141344cd1fd0a4f28419497f9722a3daafe3b4186f6b6457e090600090a35050565b606060ff83146114135761140c83611862565b9050610525565b81805461141f90612147565b80601f016020809104026020016040519081016040528092919081815260200182805461144b90612147565b80156114985780601f1061146d57610100808354040283529160200191611498565b820191906000526020600020905b81548152906001019060200180831161147b57829003601f168201915b50505050509050610525565b600065ffffffffffff8211156113a35760405162461bcd60e51b815260206004820152602660248201527f53616665436173743a2076616c756520646f65736e27742066697420696e203460448201526538206269747360d01b60648201526084016105d8565b600061052561151861104d565b8360405161190160f01b8152600281019290925260228201526042902090565b6000806000611549878787876118a1565b9150915061155681611965565b5095945050505050565b6001600160a01b03811660009081526007602052604090208054600181018255905b50919050565b505050565b611588838383611aaf565b6000816000036115aa57506000919050565b600060016115b784611ae1565b901c6001901b905060018184816115d0576115d06121cd565b048201901c905060018184816115e8576115e86121cd565b048201901c90506001818481611600576116006121cd565b048201901c90506001818481611618576116186121cd565b048201901c90506001818481611630576116306121cd565b048201901c90506001818481611648576116486121cd565b048201901c90506001818481611660576116606121cd565b048201901c90506106038182858161167a5761167a6121cd565b04611b75565b600061168f60028484186121e3565b61060390848416612191565b6116a58282611b8b565b6002546001600160e01b0310156117175760405162461bcd60e51b815260206004820152603060248201527f4552433230566f7465733a20746f74616c20737570706c79207269736b73206f60448201526f766572666c6f77696e6720766f74657360801b60648201526084016105d8565b610e9d600b610ced83611c52565b816001600160a01b0316836001600160a01b0316141580156117475750600081115b15611588576001600160a01b038316156117d5576001600160a01b0383166000908152600a60205260408120819061178290610cf985611c52565b91509150846001600160a01b03167fdec2bacdd2f05b59de34da9b523dff8be42e5e38e818c82fdb0bae774387a72483836040516117ca929190918252602082015260400190565b60405180910390a250505b6001600160a01b03821615611588576001600160a01b0382166000908152600a60205260408120819061180b90610ced85611c52565b91509150836001600160a01b03167fdec2bacdd2f05b59de34da9b523dff8be42e5e38e818c82fdb0bae774387a7248383604051611853929190918252602082015260400190565b60405180910390a25050505050565b6060600061186f83611dc7565b604080516020808252818301909252919250600091906020820181803683375050509182525060208101929092525090565b6000807f7fffffffffffffffffffffffffffffff5d576e7357a4501ddfe92f46681b20a08311156118d8575060009050600361195c565b6040805160008082526020820180845289905260ff881692820192909252606081018690526080810185905260019060a0016020604051602081039080840390855afa15801561192c573d6000803e3d6000fd5b5050604051601f1901519150506001600160a01b0381166119555760006001925092505061195c565b9150600090505b94509492505050565b600081600481111561197957611979612205565b036119815750565b600181600481111561199557611995612205565b036119e25760405162461bcd60e51b815260206004820152601860248201527f45434453413a20696e76616c6964207369676e6174757265000000000000000060448201526064016105d8565b60028160048111156119f6576119f6612205565b03611a435760405162461bcd60e51b815260206004820152601f60248201527f45434453413a20696e76616c6964207369676e6174757265206c656e6774680060448201526064016105d8565b6003816004811115611a5757611a57612205565b036106c25760405162461bcd60e51b815260206004820152602260248201527f45434453413a20696e76616c6964207369676e6174757265202773272076616c604482015261756560f01b60648201526084016105d8565b6001600160a01b0383811660009081526009602052604080822054858416835291205461158892918216911683611725565b600080608083901c15611af657608092831c92015b604083901c15611b0857604092831c92015b602083901c15611b1a57602092831c92015b601083901c15611b2c57601092831c92015b600883901c15611b3e57600892831c92015b600483901c15611b5057600492831c92015b600283901c15611b6257600292831c92015b600183901c156105255760010192915050565b6000818310611b845781610603565b5090919050565b6001600160a01b038216611be15760405162461bcd60e51b815260206004820152601f60248201527f45524332303a206d696e7420746f20746865207a65726f20616464726573730060448201526064016105d8565b8060026000828254611bf39190612191565b90915550506001600160a01b038216600081815260208181526040808320805486019055518481527fddf252ad1be2c89b69c2b068fc378daa952ba7f163c4a11628f55a4df523b3ef910160405180910390a361061c6000838361158d565b82546000908190818115611c9f5760008781526020902082016000190160408051808201909152905463ffffffff8116825264010000000090046001600160e01b03166020820152611cb4565b60408051808201909152600080825260208201525b905080602001516001600160e01b03169350611cd484868863ffffffff16565b9250600082118015611cfe5750611ce9610809565b65ffffffffffff16816000015163ffffffff16145b15611d4357611d0c83611def565b60008881526020902083016000190180546001600160e01b03929092166401000000000263ffffffff909216919091179055611dbd565b866040518060400160405280611d67611d5a610809565b65ffffffffffff1661133e565b63ffffffff168152602001611d7b86611def565b6001600160e01b0390811690915282546001810184556000938452602093849020835194909301519091166401000000000263ffffffff909316929092179101555b5050935093915050565b600060ff8216601f81111561052557604051632cd44ac360e21b815260040160405180910390fd5b60006001600160e01b038211156113a35760405162461bcd60e51b815260206004820152602760248201527f53616665436173743a2076616c756520646f65736e27742066697420696e20326044820152663234206269747360c81b60648201526084016105d8565b6000815180845260005b81811015611e7e57602081850181015186830182015201611e62565b506000602082860101526020601f19601f83011685010191505092915050565b6020815260006106036020830184611e58565b80356001600160a01b0381168114611ec857600080fd5b919050565b60008060408385031215611ee057600080fd5b611ee983611eb1565b946020939093013593505050565b600080600060608486031215611f0c57600080fd5b611f1584611eb1565b9250611f2360208501611eb1565b929592945050506040919091013590565b600060208284031215611f4657600080fd5b61060382611eb1565b60ff60f81b8816815260e060208201526000611f6e60e0830189611e58565b8281036040840152611f808189611e58565b606084018890526001600160a01b038716608085015260a0840186905283810360c08501528451808252602080870193509091019060005b81811015611fd6578351835260209384019390920191600101611fb8565b50909b9a5050505050505050505050565b600060208284031215611ff957600080fd5b5035919050565b803560ff81168114611ec857600080fd5b60008060008060008060c0878903121561202a57600080fd5b61203387611eb1565b9550602087013594506040870135935061204f60608801612000565b9598949750929560808101359460a0909101359350915050565b600080600080600080600060e0888a03121561208457600080fd5b61208d88611eb1565b965061209b60208901611eb1565b955060408801359450606088013593506120b760808901612000565b9699959850939692959460a0840135945060c09093013592915050565b600080604083850312156120e757600080fd5b6120f083611eb1565b91506120fe60208401611eb1565b90509250929050565b6000806040838503121561211a57600080fd5b61212383611eb1565b9150602083013563ffffffff8116811461213c57600080fd5b809150509250929050565b600181811c9082168061215b57607f821691505b60208210810361158257634e487b7160e01b600052602260045260246000fd5b634e487b7160e01b600052601160045260246000fd5b808201808211156105255761052561217b565b634e487b7160e01b600052603260045260246000fd5b818103818111156105255761052561217b565b634e487b7160e01b600052601260045260246000fd5b60008261220057634e487b7160e01b600052601260045260246000fd5b500490565b634e487b7160e01b600052602160045260246000fdfea26469706673582212205c25f68651a9d71699a07d87529e385c838bed253a79dc21134763cc97a69d5e64736f6c634300081b0033dec2bacdd2f05b59de34da9b523dff8be42e5e38e818c82fdb0bae774387a724",
  "linkReferences": {},
  "deployedLinkReferences": {}
}