{
  "_format": "hh-sol-artifact-1",
  "contractName": "NEXLGovernor",
  "sourceName": "contracts/NEXLGovernor.sol",
  "abi": [
    {
      "inputs": [
        {
          "internalType": "contract IVotes",
          "name": "token",
          "type": "address"
        },
        {
          "internalType": "contract TimelockController",
          "name": "timelock",
          "type": "address"
        }
      ],
      "stateMutability": "nonpayable",
      "type": "constructor"
    },
    {
      "inputs": [],
      "name": "Empty",
      "type": "error"
    },
    {
      "inputs": [],
      "name": "InvalidShortString",
      "type": "error"
    },
    {
      "inputs": [
        {
          "internalType": "string",
          "name": "str",
          "type": "string"
        }
      ],
      "name": "StringTooLong",
      "type": "error"
    },
    {
      "anonymous": false,
      "inputs": [],
      "name": "EIP712DomainChanged",
      "type": "event"
    },
    {
      "anonymous": false,
      "inputs": [
        {
          "indexed": false,
          "internalType": "uint256",
          "name": "proposalId",
          "type": "uint256"
        }
      ],
      "name": "ProposalCanceled",
      "type": "event"
    },
    {
      "anonymous": false,
      "inputs": [
        {
          "indexed": false,
          "internalType": "uint256",
          "name": "proposalId",
          "type": "uint256"
        },
        {
          "indexed": false,
          "internalType": "address",
          "name": "proposer",
          "type": "address"
        },
        {
          "indexed": false,
          "internalType": "address[]",
          "name": "targets",
          "type": "address[]"
        },
        {
          "indexed": false,
          "internalType": "uint256[]",
          "name": "values",
          "type": "uint256[]"
        },
        {
          "indexed": false,
          "internalType": "string[]",
          "name": "signatures",
          "type": "string[]"
        },
        {
          "indexed": false,
          "internalType": "bytes[]",
          "name": "calldatas",
          "type": "bytes[]"
        },
        {
          "indexed": false,
          "internalType": "uint256",
          "name": "voteStart",
          "type": "uint256"
        },
        {
          "indexed": false,
          "internalType": "uint256",
          "name": "voteEnd",
          "type": "uint256"
        },
        {
          "indexed": false,
          "internalType": "string",
          "name": "description",
          "type": "string"
        }
      ],
      "name": "ProposalCreated",
      "type": "event"
    },
    {
      "anonymous": false,
      "inputs": [
        {
          "indexed": false,
          "internalType": "uint256",
          "name": "proposalId",
          "type": "uint256"
        }
      ],
      "name": "ProposalExecuted",
      "type": "event"
    },
    {
      "anonymous": false,
      "inputs": [
        {
          "indexed": false,
          "internalType": "uint256",
          "name": "proposalId",
          "type": "uint256"
        },
        {
          "indexed": false,
          "internalType": "uint256",
          "name": "eta",
          "type": "uint256"
        }
      ],
      "name": "ProposalQueued",
      "type": "event"
    },
    {
      "anonymous": false,
      "inputs": [
        {
          "indexed": false,
          "internalType": "uint256",
          "name": "oldProposalThreshold",
          "type": "uint256"
        },
        {
          "indexed": false,
          "internalType": "uint256",
          "name": "newProposalThreshold",
          "type": "uint256"
        }
      ],
      "name": "ProposalThresholdSet",
      "type": "event"
    },
    {
      "anonymous": false,
      "inputs": [
        {
          "indexed": false,
          "internalType": "uint256",
          "name": "oldQuorumNumerator",
          "type": "uint256"
        },
        {
          "indexed": false,
          "internalType": "uint256",
          "name": "newQuorumNumerator",
          "type": "uint256"
        }
      ],
      "name": "QuorumNumeratorUpdated",
      "type": "event"
    },
    {
      "anonymous": false,
      "inputs": [
        {
          "indexed": false,
          "internalType": "address",
          "name": "oldTimelock",
          "type": "address"
        },
        {
          "indexed": false,
          "internalType": "address",
          "name": "newTimelock",
          "type": "address"
        }
      ],
      "name": "TimelockChange",
      "type": "event"
    },
    {
      "anonymous": false,
      "inputs": [
        {
          "indexed": true,
          "internalType": "address",
          "name": "voter",
          "type": "address"
        },
        {
          "indexed": false,
          "internalType": "uint256",
          "name": "proposalId",
          "type": "uint256"
        },
        {
          "indexed": false,
          "internalType": "uint8",
          "name": "support",
          "type": "uint8"
        },
        {
          "indexed": false,
          "internalType": "uint256",
          "name": "weight",
          "type": "uint256"
        },
        {
          "indexed": false,
          "internalType": "string",
          "name": "reason",
          "type": "string"
        }
      ],
      "name": "VoteCast",
      "type": "event"
    },
    {
      "anonymous": false,
      "inputs": [
        {
          "indexed": true,
          "internalType": "address",
          "name": "voter",
          "type": "address"
        },
        {
          "indexed": false,
          "internalType": "uint256",
          "name": "proposalId",
          "type": "uint256"
        },
        {
          "indexed": false,
          "internalType": "uint8",
          "name": "support",
          "type": "uint8"
        },
        {
          "indexed": false,
          "internalType": "uint256",
          "name": "weight",
          "type": "uint256"
        },
        {
          "indexed": false,
          "internalType": "string",
          "name": "reason",
          "type": "string"
        },
        {
          "indexed": false,
          "internalType": "bytes",
          "name": "params",
          "type": "bytes"
        }
      ],
      "name": "VoteCastWithParams",
      "type": "event"
    },
    {
      "anonymous": false,
      "inputs": [
        {
          "indexed": false,
          "internalType": "uint256",
          "name": "oldVotingDelay",
          "type": "uint256"
        },
        {
          "indexed": false,
          "internalType": "uint256",
          "name": "newVotingDelay",
          "type": "uint256"
        }
      ],
      "name": "VotingDelaySet",
      "type": "event"
    },
    {
      "anonymous": false,
      "inputs": [
        {
          "indexed": false,
          "internalType": "uint256",
          "name": "oldVotingPeriod",
          "type": "uint256"
        },
        {
          "indexed": false,
          "internalType": "uint256",
          "name": "newVotingPeriod",
          "type": "uint256"
        }
      ],
      "name": "VotingPeriodSet",
      "type": "event"
    },
    {
      "inputs": [],
      "name": "BALLOT_TYPEHASH",
      "outputs": [
        {
          "internalType": "bytes32",
          "name": "",
          "type": "bytes32"
        }
      ],
      "stateMutability": "view",
      "type": "function"
    },
    {
      "inputs": [],
      "name": "CLOCK_MODE",
      "outputs": [
        {
          "internalType": "string",
          "name": "",
          "type": "string"
        }
      ],
      "stateMutability": "view",
      "type": "function"
    },
    {
      "inputs": [],
      "name": "COUNTING_MODE",
      "outputs": [
        {
          "internalType": "string",
          "name": "",
          "type": "string"
        }
      ],
      "stateMutability": "pure",
      "type": "function"
    },
    {
      "inputs": [],
      "name": "EXTENDED_BALLOT_TYPEHASH",
      "outputs": [
        {
          "internalType": "bytes32",
          "name": "",
          "type": "bytes32"
        }
      ],
      "stateMutability": "view",
      "type": "function"
    },
    {
      "inputs": [
        {
          "internalType": "address[]",
          "name": "targets",
          "type": "address[]"
        },
        {
          "internalType": "uint256[]",
          "name": "values",
          "type": "uint256[]"
        },
        {
          "internalType": "bytes[]",
          "name": "calldatas",
          "type": "bytes[]"
        },
        {
          "internalType": "bytes32",
          "name": "descriptionHash",
          "type": "bytes32"
        }
      ],
      "name": "cancel",
      "outputs": [
        {
          "internalType": "uint256",
          "name": "",
          "type": "uint256"
        }
      ],
      "stateMutability": "nonpayable",
      "type": "function"
    },
    {
      "inputs": [
        {
          "internalType": "uint256",
          "name": "proposalId",
          "type": "uint256"
        },
        {
          "internalType": "uint8",
          "name": "support",
          "type": "uint8"
        }
      ],
      "name": "castVote",
      "outputs": [
        {
          "internalType": "uint256",
          "name": "",
          "type": "uint256"
        }
      ],
      "stateMutability": "nonpayable",
      "type": "function"
    },
    {
      "inputs": [
        {
          "internalType": "uint256",
          "name": "proposalId",
          "type": "uint256"
        },
        {
          "internalType": "uint8",
          "name": "support",
          "type": "uint8"
        },
        {
          "internalType": "uint8",
          "name": "v",
          "type": "uint8"
        },
        {
          "internalType": "bytes32",
          "name": "r",
          "type": "bytes32"
        },
        {
          "internalType": "bytes32",
          "name": "s",
          "type": "bytes32"
        }
      ],
      "name": "castVoteBySig",
      "outputs": [
        {
          "internalType": "uint256",
          "name": "",
          "type": "uint256"
        }
      ],
      "stateMutability": "nonpayable",
      "type": "function"
    },
    {
      "inputs": [
        {
          "internalType": "uint256",
          "name": "proposalId",
          "type": "uint256"
        },
        {
          "internalType": "uint8",
          "name": "support",
          "type": "uint8"
        },
        {
          "internalType": "string",
          "name": "reason",
          "type": "string"
        }
      ],
      "name": "castVoteWithReason",
      "outputs": [
        {
          "internalType": "uint256",
          "name": "",
          "type": "uint256"
        }
      ],
      "stateMutability": "nonpayable",
      "type": "function"
    },
    {
      "inputs": [
        {
          "internalType": "uint256",
          "name": "proposalId",
          "type": "uint256"
        },
        {
          "internalType": "uint8",
          "name": "support",
          "type": "uint8"
        },
        {
          "internalType": "string",
          "name": "reason",
          "type": "string"
        },
        {
          "internalType": "bytes",
          "name": "params",
          "type": "bytes"
        }
      ],
      "name": "castVoteWithReasonAndParams",
      "outputs": [
        {
          "internalType": "uint256",
          "name": "",
          "type": "uint256"
        }
      ],
      "stateMutability": "nonpayable",
      "type": "function"
    },
    {
      "inputs": [
        {
          "internalType": "uint256",
          "name": "proposalId",
          "type": "uint256"
        },
        {
          "internalType": "uint8",
          "name": "support",
          "type": "uint8"
        },
        {
          "internalType": "string",
          "name": "reason",
          "type": "string"
        },
        {
          "internalType": "bytes",
          "name": "params",
          "type": "bytes"
        },
        {
          "internalType": "uint8",
          "name": "v",
          "type": "uint8"
        },
        {
          "internalType": "bytes32",
          "name": "r",
          "type": "bytes32"
        },
        {
          "internalType": "bytes32",
          "name": "s",
          "type": "bytes32"
        }
      ],
      "name": "castVoteWithReasonAndParamsBySig",
      "outputs": [
        {
          "internalType": "uint256",
          "name": "",
          "type": "uint256"
        }
      ],
      "stateMutability": "nonpayable",
      "type": "function"
    },
    {
      "inputs": [],
      "name": "clock",
      "outputs": [
        {
          "internalType": "uint48",
          "name": "",
          "type": "uint48"
        }
      ],
      "stateMutability": "view",
      "type": "function"
    },
    {
      "inputs": [],
      "name": "eip712Domain",
      "outputs": [
        {
          "internalType": "bytes1",
          "name": "fields",
          "type": "bytes1"
        },
        {
          "internalType": "string",
          "name": "name",
          "type": "string"
        },
        {
          "internalType": "string",
          "name": "version",
          "type": "string"
        },
        {
          "internalType": "uint256",
          "name": "chainId",
          "type": "uint256"
        },
        {
          "internalType": "address",
          "name": "verifyingContract",
          "type": "address"
        },
        {
          "internalType": "bytes32",
          "name": "salt",
          "type": "bytes32"
        },
        {
          "internalType": "uint256[]",
          "name": "extensions",
          "type": "uint256[]"
        }
      ],
      "stateMutability": "view",
      "type": "function"
    },
    {
      "inputs": [
        {
          "internalType": "address[]",
          "name": "targets",
          "type": "address[]"
        },
        {
          "internalType": "uint256[]",
          "name": "values",
          "type": "uint256[]"
        },
        {
          "internalType": "bytes[]",
          "name": "calldatas",
          "type": "bytes[]"
        },
        {
          "internalType": "bytes32",
          "name": "descriptionHash",
          "type": "bytes32"
        }
      ],
      "name": "execute",
      "outputs": [
        {
          "internalType": "uint256",
          "name": "",
          "type": "uint256"
        }
      ],
      "stateMutability": "payable",
      "type": "function"
    },
    {
      "inputs": [
        {
          "internalType": "address",
          "name": "account",
          "type": "address"
        },
        {
          "internalType": "uint256",
          "name": "timepoint",
          "type": "uint256"
        }
      ],
      "name": "getVotes",
      "outputs": [
        {
          "internalType": "uint256",
          "name": "",
          "type": "uint256"
        }
      ],
      "stateMutability": "view",
      "type": "function"
    },
    {
      "inputs": [
        {
          "internalType": "address",
          "name": "account",
          "type": "address"
        },
        {
          "internalType": "uint256",
          "name": "timepoint",
          "type": "uint256"
        },
        {
          "internalType": "bytes",
          "name": "params",
          "type": "bytes"
        }
      ],
      "name": "getVotesWithParams",
      "outputs": [
        {
          "internalType": "uint256",
          "name": "",
          "type": "uint256"
        }
      ],
      "stateMutability": "view",
      "type": "function"
    },
    {
      "inputs": [
        {
          "internalType": "uint256",
          "name": "proposalId",
          "type": "uint256"
        },
        {
          "internalType": "address",
          "name": "account",
          "type": "address"
        }
      ],
      "name": "hasVoted",
      "outputs": [
        {
          "internalType": "bool",
          "name": "",
          "type": "bool"
        }
      ],
      "stateMutability": "view",
      "type": "function"
    },
    {
      "inputs": [
        {
          "internalType": "address[]",
          "name": "targets",
          "type": "address[]"
        },
        {
          "internalType": "uint256[]",
          "name": "values",
          "type": "uint256[]"
        },
        {
          "internalType": "bytes[]",
          "name": "calldatas",
          "type": "bytes[]"
        },
        {
          "internalType": "bytes32",
          "name": "descriptionHash",
          "type": "bytes32"
        }
      ],
      "name": "hashProposal",
      "outputs": [
        {
          "internalType": "uint256",
          "name": "",
          "type": "uint256"
        }
      ],
      "stateMutability": "pure",
      "type": "function"
    },
    {
      "inputs": [],
      "name": "name",
      "outputs": [
        {
          "internalType": "string",
          "name": "",
          "type": "string"
        }
      ],
      "stateMutability": "view",
      "type": "function"
    },
    {
      "inputs": [
        {
          "internalType": "address",
          "name": "",
          "type": "address"
        },
        {
          "internalType": "address",
          "name": "",
          "type": "address"
        },
        {
          "internalType": "uint256[]",
          "name": "",
          "type": "uint256[]"
        },
        {
          "internalType": "uint256[]",
          "name": "",
          "type": "uint256[]"
        },
        {
          "internalType": "bytes",
          "name": "",
          "type": "bytes"
        }
      ],
      "name": "onERC1155BatchReceived",
      "outputs": [
        {
          "internalType": "bytes4",
          "name": "",
          "type": "bytes4"
        }
      ],
      "stateMutability": "nonpayable",
      "type": "function"
    },
    {
      "inputs": [
        {
          "internalType": "address",
          "name": "",
          "type": "address"
        },
        {
          "internalType": "address",
          "name": "",
          "type": "address"
        },
        {
          "internalType": "uint256",
          "name": "",
          "type": "uint256"
        },
        {
          "internalType": "uint256",
          "name": "",
          "type": "uint256"
        },
        {
          "internalType": "bytes",
          "name": "",
          "type": "bytes"
        }
      ],
      "name": "onERC1155Received",
      "outputs": [
        {
          "internalType": "bytes4",
          "name": "",
          "type": "bytes4"
        }
      ],
      "stateMutability": "nonpayable",
      "type": "function"
    },
    {
      "inputs": [
        {
          "internalType": "address",
          "name": "",
          "type": "address"
        },
        {
          "internalType": "address",
          "name": "",
          "type": "address"
        },
        {
          "internalType": "uint256",
          "name": "",
          "type": "uint256"
        },
        {
          "internalType": "bytes",
          "name": "",
          "type": "bytes"
        }
      ],
      "name": "onERC721Received",
      "outputs": [
        {
          "internalType": "bytes4",
          "name": "",
          "type": "bytes4"
        }
      ],
      "stateMutability": "nonpayable",
      "type": "function"
    },
    {
      "inputs": [
        {
          "internalType": "uint256",
          "name": "proposalId",
          "type": "uint256"
        }
      ],
      "name": "proposalDeadline",
      "outputs": [
        {
          "internalType": "uint256",
          "name": "",
          "type": "uint256"
        }
      ],
      "stateMutability": "view",
      "type": "function"
    },
    {
      "inputs": [
        {
          "internalType": "uint256",
          "name": "proposalId",
          "type": "uint256"
        }
      ],
      "name": "proposalEta",
      "outputs": [
        {
          "internalType": "uint256",
          "name": "",
          "type": "uint256"
        }
      ],
      "stateMutability": "view",
      "type": "function"
    },
    {
      "inputs": [
        {
          "internalType": "uint256",
          "name": "proposalId",
          "type": "uint256"
        }
      ],
      "name": "proposalProposer",
      "outputs": [
        {
          "internalType": "address",
          "name": "",
          "type": "address"
        }
      ],
      "stateMutability": "view",
      "type": "function"
    },
    {
      "inputs": [
        {
          "internalType": "uint256",
          "name": "proposalId",
          "type": "uint256"
        }
      ],
      "name": "proposalSnapshot",
      "outputs": [
        {
          "internalType": "uint256",
          "name": "",
          "type": "uint256"
        }
      ],
      "stateMutability": "view",
      "type": "function"
    },
    {
      "inputs": [],
      "name": "proposalThreshold",
      "outputs": [
        {
          "internalType": "uint256",
          "name": "",
          "type": "uint256"
        }
      ],
      "stateMutability": "view",
      "type": "function"
    },
    {
      "inputs": [
        {
          "internalType": "uint256",
          "name": "proposalId",
          "type": "uint256"
        }
      ],
      "name": "proposalVotes",
      "outputs": [
        {
          "internalType": "uint256",
          "name": "againstVotes",
          "type": "uint256"
        },
        {
          "internalType": "uint256",
          "name": "forVotes",
          "type": "uint256"
        },
        {
          "internalType": "uint256",
          "name": "abstainVotes",
          "type": "uint256"
        }
      ],
      "stateMutability": "view",
      "type": "function"
    },
    {
      "inputs": [
        {
          "internalType": "address[]",
          "name": "targets",
          "type": "address[]"
        },
        {
          "internalType": "uint256[]",
          "name": "values",
          "type": "uint256[]"
        },
        {
          "internalType": "bytes[]",
          "name": "calldatas",
          "type": "bytes[]"
        },
        {
          "internalType": "string",
          "name": "description",
          "type": "string"
        }
      ],
      "name": "propose",
      "outputs": [
        {
          "internalType": "uint256",
          "name": "",
          "type": "uint256"
        }
      ],
      "stateMutability": "nonpayable",
      "type": "function"
    },
    {
      "inputs": [
        {
          "internalType": "address[]",
          "name": "targets",
          "type": "address[]"
        },
        {
          "internalType": "uint256[]",
          "name": "values",
          "type": "uint256[]"
        },
        {
          "internalType": "bytes[]",
          "name": "calldatas",
          "type": "bytes[]"
        },
        {
          "internalType": "bytes32",
          "name": "descriptionHash",
          "type": "bytes32"
        }
      ],
      "name": "queue",
      "outputs": [
        {
          "internalType": "uint256",
          "name": "",
          "type": "uint256"
        }
      ],
      "stateMutability": "nonpayable",
      "type": "function"
    },
    {
      "inputs": [
        {
          "internalType": "uint256",
          "name": "blockNumber",
          "type": "uint256"
        }
      ],
      "name": "quorum",
      "outputs": [
        {
          "internalType": "uint256",
          "name": "",
          "type": "uint256"
        }
      ],
      "stateMutability": "view",
      "type": "function"
    },
    {
      "inputs": [],
      "name": "quorumDenominator",
      "outputs": [
        {
          "internalType": "uint256",
          "name": "",
          "type": "uint256"
        }
      ],
      "stateMutability": "view",
      "type": "function"
    },
    {
      "inputs": [
        {
          "internalType": "uint256",
          "name": "timepoint",
          "type": "uint256"
        }
      ],
      "name": "quorumNumerator",
      "outputs": [
        {
          "internalType": "uint256",
          "name": "",
          "type": "uint256"
        }
      ],
      "stateMutability": "view",
      "type": "function"
    },
    {
      "inputs": [],
      "name": "quorumNumerator",
      "outputs": [
        {
          "internalType": "uint256",
          "name": "",
          "type": "uint256"
        }
      ],
      "stateMutability": "view",
      "type": "function"
    },
    {
      "inputs": [
        {
          "internalType": "address",
          "name": "target",
          "type": "address"
        },
        {
          "internalType": "uint256",
          "name": "value",
          "type": "uint256"
        },
        {
          "internalType": "bytes",
          "name": "data",
          "type": "bytes"
        }
      ],
      "name": "relay",
      "outputs": [],
      "stateMutability": "payable",
      "type": "function"
    },
    {
      "inputs": [
        {
          "internalType": "uint256",
          "name": "newProposalThreshold",
          "type": "uint256"
        }
      ],
      "name": "setProposalThreshold",
      "outputs": [],
      "stateMutability": "nonpayable",
      "type": "function"
    },
    {
      "inputs": [
        {
          "internalType": "uint256",
          "name": "newVotingDelay",
          "type": "uint256"
        }
      ],
      "name": "setVotingDelay",
      "outputs": [],
      "stateMutability": "nonpayable",
      "type": "function"
    },
    {
      "inputs": [
        {
          "internalType": "uint256",
          "name": "newVotingPeriod",
          "type": "uint256"
        }
      ],
      "name": "setVotingPeriod",
      "outputs": [],
      "stateMutability": "nonpayable",
      "type": "function"
    },
    {
      "inputs": [
        {
          "internalType": "uint256",
          "name": "proposalId",
          "type": "uint256"
        }
      ],
      "name": "state",
      "outputs": [
        {
          "internalType": "enum IGovernor.ProposalState",
          "name": "",
          "type": "uint8"
        }
      ],
      "stateMutability": "view",
      "type": "function"
    },
    {
      "inputs": [
        {
          "internalType": "bytes4",
          "name": "interfaceId",
          "type": "bytes4"
        }
      ],
      "name": "supportsInterface",
      "outputs": [
        {
          "internalType": "bool",
          "name": "",
          "type": "bool"
        }
      ],
      "stateMutability": "view",
      "type": "function"
    },
    {
      "inputs": [],
      "name": "timelock",
      "outputs": [
        {
          "internalType": "address",
          "name": "",
          "type": "address"
        }
      ],
      "stateMutability": "view",
      "type": "function"
    },
    {
      "inputs": [],
      "name": "token",
      "outputs": [
        {
          "internalType": "contract IERC5805",
          "name": "",
          "type": "address"
        }
      ],
      "stateMutability": "view",
      "type": "function"
    },
    {
      "inputs": [
        {
          "internalType": "uint256",
          "name": "newQuorumNumerator",
          "type": "uint256"
        }
      ],
      "name": "updateQuorumNumerator",
      "outputs": [],
      "stateMutability": "nonpayable",
      "type": "function"
    },
    {
      "inputs": [
        {
          "internalType": "contract TimelockController",
          "name": "newTimelock",
          "type": "address"
        }
      ],
      "name": "updateTimelock",
      "outputs": [],
      "stateMutability": "nonpayable",
      "type": "function"
    },
    {
      "inputs": [],
      "name": "version",
      "outputs": [
        {
          "internalType": "string",
          "name": "",
          "type": "string"
        }
      ],
      "stateMutability": "view",
      "type": "function"
    },
    {
      "inputs": [],
      "name": "votingDelay",
      "outputs": [
        {
          "internalType": "uint256",
          "name": "",
          "type": "uint256"
        }
      ],
      "stateMutability": "view",
      "type": "function"
    },
    {
      "inputs": [],
      "name": "votingPeriod",
      "outputs": [
        {
          "internalType": "uint256",
          "name": "",
          "type": "uint256"
        }
      ],
      "stateMutability": "view",
      "type": "function"
    },
    {
      "stateMutability": "payable",
      "type": "receive"
    }
  ],
  "bytecode": "0x61018060405234801561001157600080fd5b50604051615305380380615305833981016040819052610030916108f5565b80600a83600161b2fa60016040518060400160405280600c81526020016b2722ac2623b7bb32b93737b960a11b8152508061006f61017460201b60201c565b61007a82600061018f565b6101205261008981600161018f565b61014052815160208084019190912060e052815190820120610100524660a05261011660e05161010051604080517f8b73c3c69bb8fe3d512ecc4cf759cc79239f7b179b0ffacaa9a75d522b39400f60208201529081019290925260608201524660808201523060a082015260009060c00160405160208183030381529060405280519060200120905090565b60805250503060c052600261012b82826109ce565b506101379050836101c2565b61014082610203565b610149816102a9565b5050506001600160a01b031661016052610162816102ea565b5061016c81610459565b505050610b47565b6040805180820190915260018152603160f81b602082015290565b60006020835110156101ab576101a4836104c2565b90506101bc565b816101b684826109ce565b5060ff90505b92915050565b60065460408051918252602082018390527fc565b045403dc03c2eea82b81a0465edad9e2e7fc4d97e11421c209da93d7a93910160405180910390a1600655565b600081116102685760405162461bcd60e51b815260206004820152602760248201527f476f7665726e6f7253657474696e67733a20766f74696e6720706572696f6420604482015266746f6f206c6f7760c81b60648201526084015b60405180910390fd5b60075460408051918252602082018390527f7e3f7f0708a84de9203036abaa450dccc85ad5ff52f78c170f3edb55cf5e8828910160405180910390a1600755565b60085460408051918252602082018390527fccb45da8d5717e6c4544694297c4ba5cf151d455c9bb0ed4fc7a38411bc05461910160405180910390a1600855565b606481111561036d5760405162461bcd60e51b815260206004820152604360248201527f476f7665726e6f72566f74657351756f72756d4672616374696f6e3a2071756f60448201527f72756d4e756d657261746f72206f7665722071756f72756d44656e6f6d696e616064820152623a37b960e91b608482015260a40161025f565b6000610377610500565b905080158015906103885750600b54155b156103ed576040805180820190915260008152600b90602081016103ab8461052c565b6001600160e01b0390811690915282546001810184556000938452602093849020835194909301519091166401000000000263ffffffff909316929092179101555b61041a6104086103fb610599565b65ffffffffffff1661060a565b6104118461052c565b600b919061066f565b505060408051828152602081018490527f0553476bf02ef2726e8ce5ced78d63e26e602e4a2257b1f559418e24b4633997910160405180910390a15050565b600c54604080516001600160a01b03928316815291831660208301527f08f74ea46ef7894f65eabfb5e6e695de773a000b47c529ab559178069b226401910160405180910390a1600c80546001600160a01b0319166001600160a01b0392909216919091179055565b600080829050601f815111156104ed578260405163305a27a960e01b815260040161025f9190610a8c565b80516104f882610ada565b179392505050565b600b546000901561052357610515600b61068a565b6001600160e01b0316905090565b600a545b905090565b60006001600160e01b038211156105955760405162461bcd60e51b815260206004820152602760248201527f53616665436173743a2076616c756520646f65736e27742066697420696e20326044820152663234206269747360c81b606482015260840161025f565b5090565b6000610160516001600160a01b03166391ddadf46040518163ffffffff1660e01b8152600401602060405180830381865afa9250505080156105f8575060408051601f3d908101601f191682019092526105f591810190610afe565b60015b61060557610527436106d3565b919050565b600063ffffffff8211156105955760405162461bcd60e51b815260206004820152602660248201527f53616665436173743a2076616c756520646f65736e27742066697420696e203360448201526532206269747360d01b606482015260840161025f565b60008061067d85858561073a565b915091505b935093915050565b805460009080156106c9576106b2836106a4600184610b26565b600091825260209091200190565b5464010000000090046001600160e01b03166106cc565b60005b9392505050565b600065ffffffffffff8211156105955760405162461bcd60e51b815260206004820152602660248201527f53616665436173743a2076616c756520646f65736e27742066697420696e203460448201526538206269747360d01b606482015260840161025f565b825460009081908015610883576000610758876106a4600185610b26565b60408051808201909152905463ffffffff8082168084526401000000009092046001600160e01b0316602084015291925090871610156107da5760405162461bcd60e51b815260206004820152601b60248201527f436865636b706f696e743a2064656372656173696e67206b6579730000000000604482015260640161025f565b805163ffffffff80881691160361082357846107fb886106a4600186610b26565b80546001600160e01b03929092166401000000000263ffffffff909216919091179055610873565b6040805180820190915263ffffffff80881682526001600160e01b0380881660208085019182528b54600181018d5560008d81529190912094519151909216640100000000029216919091179101555b6020015192508391506106829050565b50506040805180820190915263ffffffff80851682526001600160e01b0380851660208085019182528854600181018a5560008a815291822095519251909316640100000000029190931617920191909155905081610682565b6001600160a01b03811681146108f257600080fd5b50565b6000806040838503121561090857600080fd5b8251610913816108dd565b6020840151909250610924816108dd565b809150509250929050565b634e487b7160e01b600052604160045260246000fd5b600181811c9082168061095957607f821691505b60208210810361097957634e487b7160e01b600052602260045260246000fd5b50919050565b601f8211156109c957806000526020600020601f840160051c810160208510156109a65750805b601f840160051c820191505b818110156109c657600081556001016109b2565b50505b505050565b81516001600160401b038111156109e7576109e761092f565b6109fb816109f58454610945565b8461097f565b6020601f821160018114610a2f5760008315610a175750848201515b600019600385901b1c1916600184901b1784556109c6565b600084815260208120601f198516915b82811015610a5f5787850151825560209485019460019092019101610a3f565b5084821015610a7d5786840151600019600387901b60f8161c191681555b50505050600190811b01905550565b602081526000825180602084015260005b81811015610aba5760208186018101516040868401015201610a9d565b506000604082850101526040601f19601f83011684010191505092915050565b805160208083015191908110156109795760001960209190910360031b1b16919050565b600060208284031215610b1057600080fd5b815165ffffffffffff811681146106cc57600080fd5b818103818111156101bc57634e487b7160e01b600052601160045260246000fd5b60805160a05160c05160e0516101005161012051610140516101605161473d610bc8600039600081816109dd015281816110c6015281816117de0152818161265401526128780152600061178a0152600061176001526000612a7501526000612a4d015260006129a8015260006129d2015260006129fc015261473d6000f3fe6080604052600436106102815760003560e01c80637b3c71d31161014f578063c01f9e37116100c1578063ea0217cf1161007a578063ea0217cf1461091f578063eb9019d41461093f578063ece40cc11461095f578063f23a6e611461097f578063f8ce560a146109ab578063fc0c546a146109cb57600080fd5b8063c01f9e371461081b578063c28bc2fa14610854578063c59057e414610867578063d33219b414610887578063dd4e2ba5146108a5578063deaaa7cc146108eb57600080fd5b80639a802a6d116101135780639a802a6d14610765578063a7713a7014610785578063a890c9101461079a578063ab58fb8e146107ba578063b58131b0146107da578063bc197c81146107ef57600080fd5b80637b3c71d3146106bd5780637d5e81e2146106dd57806384b0196e146106fd57806391ddadf41461072557806397c3d3341461075157600080fd5b80633932abb1116101f3578063544ffc9c116101ac578063544ffc9c146105be57806354fd4d5014610613578063567813881461063d5780635f398a141461065d57806360c4247f1461067d57806370b0f6601461069d57600080fd5b80633932abb1146104dd5780633bccf4fd146104f25780633e4f49e614610512578063438596321461053f578063452115d6146105895780634bf5d7e9146105a957600080fd5b8063143489d011610245578063143489d0146103a7578063150b7a02146103fc578063160cbed7146104405780632656227d146104605780632d63f693146104735780632fe3e261146104a957600080fd5b806301ffc9a7146102f157806302a251a314610326578063034201811461034557806306f3f9e61461036557806306fdde031461038557600080fd5b366102ec573061028f6109ff565b6001600160a01b0316146102ea5760405162461bcd60e51b815260206004820152601f60248201527f476f7665726e6f723a206d7573742073656e6420746f206578656375746f720060448201526064015b60405180910390fd5b005b600080fd5b3480156102fd57600080fd5b5061031161030c366004613799565b610a18565b60405190151581526020015b60405180910390f35b34801561033257600080fd5b506007545b60405190815260200161031d565b34801561035157600080fd5b506103376103603660046138e7565b610a29565b34801561037157600080fd5b506102ea610380366004613991565b610b21565b34801561039157600080fd5b5061039a610bab565b60405161031d91906139fa565b3480156103b357600080fd5b506103e46103c2366004613991565b600090815260036020526040902054600160401b90046001600160a01b031690565b6040516001600160a01b03909116815260200161031d565b34801561040857600080fd5b50610427610417366004613a22565b630a85bd0160e11b949350505050565b6040516001600160e01b0319909116815260200161031d565b34801561044c57600080fd5b5061033761045b366004613bf7565b610c3d565b61033761046e366004613bf7565b610e3e565b34801561047f57600080fd5b5061033761048e366004613991565b6000908152600360205260409020546001600160401b031690565b3480156104b557600080fd5b506103377fb3b3f3b703cd84ce352197dcff232b1b5d3cfb2025ce47cf04742d0651f1af8881565b3480156104e957600080fd5b50600654610337565b3480156104fe57600080fd5b5061033761050d366004613c90565b610f30565b34801561051e57600080fd5b5061053261052d366004613991565b610fa6565b60405161031d9190613cf4565b34801561054b57600080fd5b5061031161055a366004613d1c565b60008281526009602090815260408083206001600160a01b038516845260030190915290205460ff1692915050565b34801561059557600080fd5b506103376105a4366004613bf7565b610fb1565b3480156105b557600080fd5b5061039a6110c2565b3480156105ca57600080fd5b506105f86105d9366004613991565b6000908152600960205260409020805460018201546002909201549092565b6040805193845260208401929092529082015260600161031d565b34801561061f57600080fd5b506040805180820190915260018152603160f81b602082015261039a565b34801561064957600080fd5b50610337610658366004613d4c565b611184565b34801561066957600080fd5b50610337610678366004613d78565b6111ad565b34801561068957600080fd5b50610337610698366004613991565b6111f7565b3480156106a957600080fd5b506102ea6106b8366004613991565b6112a8565b3480156106c957600080fd5b506103376106d8366004613dff565b61132f565b3480156106e957600080fd5b506103376106f8366004613e58565b611377565b34801561070957600080fd5b50610712611752565b60405161031d9796959493929190613f58565b34801561073157600080fd5b5061073a6117da565b60405165ffffffffffff909116815260200161031d565b34801561075d57600080fd5b506064610337565b34801561077157600080fd5b50610337610780366004613fba565b611863565b34801561079157600080fd5b5061033761187a565b3480156107a657600080fd5b506102ea6107b5366004614012565b6118a4565b3480156107c657600080fd5b506103376107d5366004613991565b61192b565b3480156107e657600080fd5b506103376119c5565b3480156107fb57600080fd5b5061042761080a36600461402f565b63bc197c8160e01b95945050505050565b34801561082757600080fd5b50610337610836366004613991565b6000908152600360205260409020600101546001600160401b031690565b6102ea6108623660046140cd565b6119d0565b34801561087357600080fd5b50610337610882366004613bf7565b611adf565b34801561089357600080fd5b50600c546001600160a01b03166103e4565b3480156108b157600080fd5b506040805180820190915260208082527f737570706f72743d627261766f2671756f72756d3d666f722c6162737461696e9082015261039a565b3480156108f757600080fd5b506103377f150214d74d59b7d1e90c73fc22ef3d991dd0a76b046543d4d80ab92d2a50328f81565b34801561092b57600080fd5b506102ea61093a366004613991565b611b19565b34801561094b57600080fd5b5061033761095a366004614110565b611ba0565b34801561096b57600080fd5b506102ea61097a366004613991565b611bc1565b34801561098b57600080fd5b5061042761099a36600461413c565b63f23a6e6160e01b95945050505050565b3480156109b757600080fd5b506103376109c6366004613991565b611c48565b3480156109d757600080fd5b506103e47f000000000000000000000000000000000000000000000000000000000000000081565b6000610a13600c546001600160a01b031690565b905090565b6000610a2382611c53565b92915050565b600080610acd610ac57fb3b3f3b703cd84ce352197dcff232b1b5d3cfb2025ce47cf04742d0651f1af888c8c8c8c604051610a65929190614198565b60405180910390208b80519060200120604051602001610aaa959493929190948552602085019390935260ff9190911660408401526060830152608082015260a00190565b60405160208183030381529060405280519060200120611c78565b868686611ca5565b9050610b138a828b8b8b8080601f0160208091040260200160405190810160405280939291908181526020018383808284376000920191909152508d9250611cc3915050565b9a9950505050505050505050565b610b296109ff565b6001600160a01b0316336001600160a01b031614610b595760405162461bcd60e51b81526004016102e1906141a8565b30610b626109ff565b6001600160a01b031614610b9f5760008036604051610b82929190614198565b604051809103902090505b80610b986004611e18565b03610b8d57505b610ba881611e97565b50565b606060028054610bba906141df565b80601f0160208091040260200160405190810160405280929190818152602001828054610be6906141df565b8015610c335780601f10610c0857610100808354040283529160200191610c33565b820191906000526020600020905b815481529060010190602001808311610c1657829003601f168201915b5050505050905090565b600080610c4c86868686611adf565b90506004610c5982610fa6565b6007811115610c6a57610c6a613cde565b14610c875760405162461bcd60e51b81526004016102e190614219565b600c546040805163793d064960e11b815290516000926001600160a01b03169163f27a0c929160048083019260209291908290030181865afa158015610cd1573d6000803e3d6000fd5b505050506040513d601f19601f82011682018060405250810190610cf5919061425a565b600c5460405163b1c5f42760e01b81529192506001600160a01b03169063b1c5f42790610d2f908a908a908a906000908b9060040161430a565b602060405180830381865afa158015610d4c573d6000803e3d6000fd5b505050506040513d601f19601f82011682018060405250810190610d70919061425a565b6000838152600d602052604080822092909255600c5491516308f2a0bb60e41b81526001600160a01b0390921691638f2a0bb091610dbb918b918b918b91908b908990600401614358565b600060405180830381600087803b158015610dd557600080fd5b505af1158015610de9573d6000803e3d6000fd5b505050507f9a2e42fd6722813d69113e7d0079d3d940171428df7373df9c7f7617cfda2892828242610e1b91906143c6565b604080519283526020830191909152015b60405180910390a15095945050505050565b600080610e4d86868686611adf565b90506000610e5a82610fa6565b90506004816007811115610e7057610e70613cde565b1480610e8d57506005816007811115610e8b57610e8b613cde565b145b610ea95760405162461bcd60e51b81526004016102e190614219565b60008281526003602052604090819020600201805460ff19166001179055517f712ae1383f79ac853f8d882153778e0260ef8f03b504e2866e0593e04d2b291f90610ef79084815260200190565b60405180910390a1610f0c8288888888612005565b610f19828888888861209f565b610f2682888888886120ac565b5095945050505050565b604080517f150214d74d59b7d1e90c73fc22ef3d991dd0a76b046543d4d80ab92d2a50328f602082015290810186905260ff851660608201526000908190610f7e90610ac590608001610aaa565b9050610f9b878288604051806020016040528060008152506120e5565b979650505050505050565b6000610a2382612111565b600080610fc086868686611adf565b90506000610fcd82610fa6565b6007811115610fde57610fde613cde565b1461102b5760405162461bcd60e51b815260206004820152601c60248201527f476f7665726e6f723a20746f6f206c61746520746f2063616e63656c0000000060448201526064016102e1565b600081815260036020526040902054600160401b90046001600160a01b0316336001600160a01b0316146110ac5760405162461bcd60e51b815260206004820152602260248201527f476f7665726e6f723a206f6e6c792070726f706f7365722063616e2063616e63604482015261195b60f21b60648201526084016102e1565b6110b88686868661225b565b9695505050505050565b60607f00000000000000000000000000000000000000000000000000000000000000006001600160a01b0316634bf5d7e96040518163ffffffff1660e01b8152600401600060405180830381865afa92505050801561114357506040513d6000823e601f3d908101601f1916820160405261114091908101906143d9565b60015b61117f575060408051808201909152601d81527f6d6f64653d626c6f636b6e756d6265722666726f6d3d64656661756c74000000602082015290565b919050565b6000803390506111a5848285604051806020016040528060008152506120e5565b949350505050565b600080339050610f9b87828888888080601f0160208091040260200160405190810160405280939291908181526020018383808284376000920191909152508a9250611cc3915050565b600b5460009080820361120e575050600a54919050565b6000600b61121d600184614446565b8154811061122d5761122d614459565b60009182526020918290206040805180820190915291015463ffffffff8116808352600160201b9091046001600160e01b0316928201929092529150841061128357602001516001600160e01b03169392505050565b61129761128f85612269565b600b906122d2565b6001600160e01b0316949350505050565b6112b06109ff565b6001600160a01b0316336001600160a01b0316146112e05760405162461bcd60e51b81526004016102e1906141a8565b306112e96109ff565b6001600160a01b0316146113265760008036604051611309929190614198565b604051809103902090505b8061131f6004611e18565b0361131457505b610ba881612385565b6000803390506110b886828787878080601f0160208091040260200160405190810160405280939291908181526020018383808284376000920191909152506120e592505050565b60003361138481846123c6565b6113d05760405162461bcd60e51b815260206004820152601d60248201527f476f7665726e6f723a2070726f706f736572207265737472696374656400000060448201526064016102e1565b60006113da6117da565b65ffffffffffff1690506113ec6119c5565b6113fb8361095a600185614446565b10156114635760405162461bcd60e51b815260206004820152603160248201527f476f7665726e6f723a2070726f706f73657220766f7465732062656c6f7720706044820152701c9bdc1bdcd85b081d1a1c995cda1bdb19607a1b60648201526084016102e1565b60006114788888888880519060200120611adf565b9050865188511461149b5760405162461bcd60e51b81526004016102e19061446f565b85518851146114bc5760405162461bcd60e51b81526004016102e19061446f565b600088511161150d5760405162461bcd60e51b815260206004820152601860248201527f476f7665726e6f723a20656d7074792070726f706f73616c000000000000000060448201526064016102e1565b6000818152600360205260409020546001600160401b03161561157c5760405162461bcd60e51b815260206004820152602160248201527f476f7665726e6f723a2070726f706f73616c20616c72656164792065786973746044820152607360f81b60648201526084016102e1565b600061158760065490565b61159190846143c6565b9050600061159e60075490565b6115a890836143c6565b90506040518060e001604052806115be846124b1565b6001600160401b031681526001600160a01b0387166020820152600060408201526060016115eb836124b1565b6001600160401b039081168252600060208084018290526040808501839052606094850183905288835260038252918290208551815492870151878501519186166001600160e01b031990941693909317600160401b6001600160a01b039094168402176001600160e01b0316600160e01b60e09290921c91909102178155938501516080860151908416921c0217600183015560a08301516002909201805460c09094015161ffff1990941692151561ff00191692909217610100931515939093029290921790558a517f7d84a6263ae0d98d3329bd7b46bb4e8d6f98cd35a7adb45c274c8b7fd5ebd5e091859188918e918e918111156116ef576116ef61381c565b60405190808252806020026020018201604052801561172257816020015b606081526020019060019003908161170d5790505b508d88888f60405161173c999897969594939291906144b0565b60405180910390a1509098975050505050505050565b6000606080828080836117857f000000000000000000000000000000000000000000000000000000000000000083612519565b6117b07f00000000000000000000000000000000000000000000000000000000000000006001612519565b60408051600080825260208201909252600f60f81b9b939a50919850469750309650945092509050565b60007f00000000000000000000000000000000000000000000000000000000000000006001600160a01b03166391ddadf46040518163ffffffff1660e01b8152600401602060405180830381865afa925050508015611856575060408051601f3d908101601f191682019092526118539181019061458d565b60015b61117f57610a13436125c4565b600061187084848461262b565b90505b9392505050565b600b546000901561189d5761188f600b6126c1565b6001600160e01b0316905090565b50600a5490565b6118ac6109ff565b6001600160a01b0316336001600160a01b0316146118dc5760405162461bcd60e51b81526004016102e1906141a8565b306118e56109ff565b6001600160a01b0316146119225760008036604051611905929190614198565b604051809103902090505b8061191b6004611e18565b0361191057505b610ba8816126f1565b600c546000828152600d602052604080822054905163d45c443560e01b81526004810191909152909182916001600160a01b039091169063d45c443590602401602060405180830381865afa158015611988573d6000803e3d6000fd5b505050506040513d601f19601f820116820180604052508101906119ac919061425a565b9050806001146119bc5780611873565b60009392505050565b6000610a1360085490565b6119d86109ff565b6001600160a01b0316336001600160a01b031614611a085760405162461bcd60e51b81526004016102e1906141a8565b30611a116109ff565b6001600160a01b031614611a4e5760008036604051611a31929190614198565b604051809103902090505b80611a476004611e18565b03611a3c57505b600080856001600160a01b0316858585604051611a6c929190614198565b60006040518083038185875af1925050503d8060008114611aa9576040519150601f19603f3d011682016040523d82523d6000602084013e611aae565b606091505b5091509150611ad682826040518060600160405280602881526020016146e06028913961275a565b50505050505050565b600084848484604051602001611af894939291906145b5565b60408051601f19818403018152919052805160209091012095945050505050565b611b216109ff565b6001600160a01b0316336001600160a01b031614611b515760405162461bcd60e51b81526004016102e1906141a8565b30611b5a6109ff565b6001600160a01b031614611b975760008036604051611b7a929190614198565b604051809103902090505b80611b906004611e18565b03611b8557505b610ba881612773565b60006118738383611bbc60408051602081019091526000815290565b61262b565b611bc96109ff565b6001600160a01b0316336001600160a01b031614611bf95760405162461bcd60e51b81526004016102e1906141a8565b30611c026109ff565b6001600160a01b031614611c3f5760008036604051611c22929190614198565b604051809103902090505b80611c386004611e18565b03611c2d57505b610ba881612814565b6000610a2382612855565b60006001600160e01b03198216636e665ced60e01b1480610a235750610a23826128ff565b6000610a23611c8561299b565b8360405161190160f01b8152600281019290925260228201526042902090565b6000806000611cb687878787612ac6565b91509150610f2681612b8a565b60008581526003602052604081206001611cdc88610fa6565b6007811115611ced57611ced613cde565b14611d465760405162461bcd60e51b815260206004820152602360248201527f476f7665726e6f723a20766f7465206e6f742063757272656e746c792061637460448201526269766560e81b60648201526084016102e1565b8054600090611d609088906001600160401b03168661262b565b9050611d6f8888888488612cd4565b8351600003611dc457866001600160a01b03167fb8e138887d0aa13bab447e82de9d5c1777041ecd21ca36ba824ff1e6c07ddda489888489604051611db79493929190614600565b60405180910390a2610f9b565b866001600160a01b03167fe2babfbac5889a709b63bb7f598b324e08bc5a4fb9ec647fb3cbc9ec07eb87128988848989604051611e05959493929190614628565b60405180910390a2979650505050505050565b6000611e338254600f81810b600160801b909204900b131590565b15611e5157604051631ed9509560e11b815260040160405180910390fd5b508054600f0b6000818152600180840160205260408220805492905583546fffffffffffffffffffffffffffffffff191692016001600160801b03169190911790915590565b6064811115611f1a5760405162461bcd60e51b815260206004820152604360248201527f476f7665726e6f72566f74657351756f72756d4672616374696f6e3a2071756f60448201527f72756d4e756d657261746f72206f7665722071756f72756d44656e6f6d696e616064820152623a37b960e91b608482015260a4016102e1565b6000611f2461187a565b90508015801590611f355750600b54155b15611f99576040805180820190915260008152600b9060208101611f5884612e4e565b6001600160e01b039081169091528254600181018455600093845260209384902083519490930151909116600160201b0263ffffffff909316929092179101555b611fc6611fb4611fa76117da565b65ffffffffffff16612269565b611fbd84612e4e565b600b9190612eb7565b505060408051828152602081018490527f0553476bf02ef2726e8ce5ced78d63e26e602e4a2257b1f559418e24b4633997910160405180910390a15050565b3061200e6109ff565b6001600160a01b0316146120985760005b845181101561209657306001600160a01b031685828151811061204457612044614459565b60200260200101516001600160a01b03160361208e5761208e83828151811061206f5761206f614459565b6020026020010151805190602001206004612ed290919063ffffffff16565b60010161201f565b505b5050505050565b6120988585858585612f0e565b306120b56109ff565b6001600160a01b03161461209857600454600f81810b600160801b909204900b1315612098576000600455612098565b60006121088585858561210360408051602081019091526000815290565b611cc3565b95945050505050565b60008061211d83612f82565b9050600481600781111561213357612133613cde565b1461213e5792915050565b6000838152600d602052604090205480612159575092915050565b600c54604051632ab0f52960e01b8152600481018390526001600160a01b0390911690632ab0f52990602401602060405180830381865afa1580156121a2573d6000803e3d6000fd5b505050506040513d601f19601f820116820180604052508101906121c6919061466e565b156121d5575060079392505050565b600c54604051632c258a9f60e11b8152600481018390526001600160a01b039091169063584b153e90602401602060405180830381865afa15801561221e573d6000803e3d6000fd5b505050506040513d601f19601f82011682018060405250810190612242919061466e565b15612251575060059392505050565b5060029392505050565b6000612108858585856130c2565b600063ffffffff8211156122ce5760405162461bcd60e51b815260206004820152602660248201527f53616665436173743a2076616c756520646f65736e27742066697420696e203360448201526532206269747360d01b60648201526084016102e1565b5090565b81546000908181600581111561232f5760006122ed84613174565b6122f79085614446565b60008881526020902090915081015463ffffffff908116908716101561231f5780915061232d565b61232a8160016143c6565b92505b505b600061233d8787858561325c565b905080156123785761236287612354600184614446565b600091825260209091200190565b54600160201b90046001600160e01b0316610f9b565b6000979650505050505050565b60065460408051918252602082018390527fc565b045403dc03c2eea82b81a0465edad9e2e7fc4d97e11421c209da93d7a93910160405180910390a1600655565b805160009060348110156123de576001915050610a23565b82810160131901516001600160a01b031981166b046e0e4dee0dee6cae47a60f60a31b1461241157600192505050610a23565b60008061241f602885614446565b90505b838110156124905760008061245688848151811061244257612442614459565b01602001516001600160f81b0319166132ba565b915091508161246e5760019650505050505050610a23565b8060ff166004856001600160a01b0316901b1793505050806001019050612422565b50856001600160a01b0316816001600160a01b031614935050505092915050565b60006001600160401b038211156122ce5760405162461bcd60e51b815260206004820152602660248201527f53616665436173743a2076616c756520646f65736e27742066697420696e203660448201526534206269747360d01b60648201526084016102e1565b606060ff83146125335761252c8361334c565b9050610a23565b81805461253f906141df565b80601f016020809104026020016040519081016040528092919081815260200182805461256b906141df565b80156125b85780601f1061258d576101008083540402835291602001916125b8565b820191906000526020600020905b81548152906001019060200180831161259b57829003601f168201915b50505050509050610a23565b600065ffffffffffff8211156122ce5760405162461bcd60e51b815260206004820152602660248201527f53616665436173743a2076616c756520646f65736e27742066697420696e203460448201526538206269747360d01b60648201526084016102e1565b604051630748d63560e31b81526001600160a01b038481166004830152602482018490526000917f000000000000000000000000000000000000000000000000000000000000000090911690633a46b1a890604401602060405180830381865afa15801561269d573d6000803e3d6000fd5b505050506040513d601f19601f82011682018060405250810190611870919061425a565b805460009080156119bc576126db83612354600184614446565b54600160201b90046001600160e01b0316611873565b600c54604080516001600160a01b03928316815291831660208301527f08f74ea46ef7894f65eabfb5e6e695de773a000b47c529ab559178069b226401910160405180910390a1600c80546001600160a01b0319166001600160a01b0392909216919091179055565b60608315612769575081611873565b611873838361338b565b600081116127d35760405162461bcd60e51b815260206004820152602760248201527f476f7665726e6f7253657474696e67733a20766f74696e6720706572696f6420604482015266746f6f206c6f7760c81b60648201526084016102e1565b60075460408051918252602082018390527f7e3f7f0708a84de9203036abaa450dccc85ad5ff52f78c170f3edb55cf5e8828910160405180910390a1600755565b60085460408051918252602082018390527fccb45da8d5717e6c4544694297c4ba5cf151d455c9bb0ed4fc7a38411bc05461910160405180910390a1600855565b60006064612862836111f7565b604051632394e7a360e21b8152600481018590527f00000000000000000000000000000000000000000000000000000000000000006001600160a01b031690638e539e8c90602401602060405180830381865afa1580156128c7573d6000803e3d6000fd5b505050506040513d601f19601f820116820180604052508101906128eb919061425a565b6128f59190614690565b610a2391906146bd565b600063288ace0360e11b6318df743f60e31b63bf26d89760e01b6379dd796f60e01b6001600160e01b0319861682148061294557506001600160e01b0319868116908216145b8061295c57506001600160e01b0319868116908516145b8061297757506001600160e01b03198616630271189760e51b145b806110b857506301ffc9a760e01b6001600160e01b03198716149695505050505050565b6000306001600160a01b037f0000000000000000000000000000000000000000000000000000000000000000161480156129f457507f000000000000000000000000000000000000000000000000000000000000000046145b15612a1e57507f000000000000000000000000000000000000000000000000000000000000000090565b610a13604080517f8b73c3c69bb8fe3d512ecc4cf759cc79239f7b179b0ffacaa9a75d522b39400f60208201527f0000000000000000000000000000000000000000000000000000000000000000918101919091527f000000000000000000000000000000000000000000000000000000000000000060608201524660808201523060a082015260009060c00160405160208183030381529060405280519060200120905090565b6000807f7fffffffffffffffffffffffffffffff5d576e7357a4501ddfe92f46681b20a0831115612afd5750600090506003612b81565b6040805160008082526020820180845289905260ff881692820192909252606081018690526080810185905260019060a0016020604051602081039080840390855afa158015612b51573d6000803e3d6000fd5b5050604051601f1901519150506001600160a01b038116612b7a57600060019250925050612b81565b9150600090505b94509492505050565b6000816004811115612b9e57612b9e613cde565b03612ba65750565b6001816004811115612bba57612bba613cde565b03612c075760405162461bcd60e51b815260206004820152601860248201527f45434453413a20696e76616c6964207369676e6174757265000000000000000060448201526064016102e1565b6002816004811115612c1b57612c1b613cde565b03612c685760405162461bcd60e51b815260206004820152601f60248201527f45434453413a20696e76616c6964207369676e6174757265206c656e6774680060448201526064016102e1565b6003816004811115612c7c57612c7c613cde565b03610ba85760405162461bcd60e51b815260206004820152602260248201527f45434453413a20696e76616c6964207369676e6174757265202773272076616c604482015261756560f01b60648201526084016102e1565b60008581526009602090815260408083206001600160a01b0388168452600381019092529091205460ff1615612d5c5760405162461bcd60e51b815260206004820152602760248201527f476f7665726e6f72566f74696e6753696d706c653a20766f746520616c726561604482015266191e4818d85cdd60ca1b60648201526084016102e1565b6001600160a01b03851660009081526003820160205260409020805460ff1916600117905560ff8416612da85782816000016000828254612d9d91906143c6565b909155506120969050565b60001960ff851601612dc85782816001016000828254612d9d91906143c6565b60011960ff851601612de85782816002016000828254612d9d91906143c6565b60405162461bcd60e51b815260206004820152603560248201527f476f7665726e6f72566f74696e6753696d706c653a20696e76616c69642076616044820152746c756520666f7220656e756d20566f74655479706560581b60648201526084016102e1565b60006001600160e01b038211156122ce5760405162461bcd60e51b815260206004820152602760248201527f53616665436173743a2076616c756520646f65736e27742066697420696e20326044820152663234206269747360c81b60648201526084016102e1565b600080612ec58585856133b5565b915091505b935093915050565b8154600160801b90819004600f0b6000818152600180860160205260409091209390935583546001600160801b03908116939091011602179055565b600c5460405163e38335e560e01b81526001600160a01b039091169063e38335e5903490612f4990889088908890600090899060040161430a565b6000604051808303818588803b158015612f6257600080fd5b505af1158015612f76573d6000803e3d6000fd5b50505050505050505050565b6000818152600360205260408120600281015460ff1615612fa65750600792915050565b6002810154610100900460ff1615612fc15750600292915050565b6000838152600360205260408120546001600160401b0316908190036130295760405162461bcd60e51b815260206004820152601d60248201527f476f7665726e6f723a20756e6b6e6f776e2070726f706f73616c20696400000060448201526064016102e1565b60006130336117da565b65ffffffffffff16905080821061304f57506000949350505050565b6000858152600360205260409020600101546001600160401b031681811061307d5750600195945050505050565b61308686613554565b80156130a5575060008681526009602052604090208054600190910154115b156130b65750600495945050505050565b50600395945050505050565b6000806130d1868686866135a0565b6000818152600d60205260409020549091501561210857600c546000828152600d60205260409081902054905163c4d252f560e01b81526001600160a01b039092169163c4d252f59161312a9160040190815260200190565b600060405180830381600087803b15801561314457600080fd5b505af1158015613158573d6000803e3d6000fd5b5050506000828152600d60205260408120555095945050505050565b60008160000361318657506000919050565b60006001613193846136ac565b901c6001901b905060018184816131ac576131ac6146a7565b048201901c905060018184816131c4576131c46146a7565b048201901c905060018184816131dc576131dc6146a7565b048201901c905060018184816131f4576131f46146a7565b048201901c9050600181848161320c5761320c6146a7565b048201901c90506001818481613224576132246146a7565b048201901c9050600181848161323c5761323c6146a7565b048201901c905061187381828581613256576132566146a7565b04613740565b60005b818310156132b25760006132738484613756565b60008781526020902090915063ffffffff86169082015463ffffffff16111561329e578092506132ac565b6132a98160016143c6565b93505b5061325f565b509392505050565b60008060f883901c602f811180156132d55750603a8160ff16105b156132ea57600194602f199091019350915050565b8060ff166040108015613300575060478160ff16105b15613315576001946036199091019350915050565b8060ff16606010801561332b575060678160ff16105b15613340576001946056199091019350915050565b50600093849350915050565b6060600061335983613771565b604080516020808252818301909252919250600091906020820181803683375050509182525060208101929092525090565b81511561339b5781518083602001fd5b8060405162461bcd60e51b81526004016102e191906139fa565b8254600090819080156134fb5760006133d387612354600185614446565b60408051808201909152905463ffffffff808216808452600160201b9092046001600160e01b0316602084015291925090871610156134545760405162461bcd60e51b815260206004820152601b60248201527f436865636b706f696e743a2064656372656173696e67206b657973000000000060448201526064016102e1565b805163ffffffff80881691160361349c578461347588612354600186614446565b80546001600160e01b0392909216600160201b0263ffffffff9092169190911790556134eb565b6040805180820190915263ffffffff80881682526001600160e01b0380881660208085019182528b54600181018d5560008d81529190912094519151909216600160201b029216919091179101555b602001519250839150612eca9050565b50506040805180820190915263ffffffff80851682526001600160e01b0380851660208085019182528854600181018a5560008a815291822095519251909316600160201b029190931617920191909155905081612eca565b60008181526009602052604081206002810154600182015461357691906143c6565b600084815260036020526040902054613597906001600160401b0316611c48565b11159392505050565b6000806135af86868686611adf565b905060006135bc82610fa6565b905060028160078111156135d2576135d2613cde565b141580156135f2575060068160078111156135ef576135ef613cde565b14155b80156136105750600781600781111561360d5761360d613cde565b14155b61365c5760405162461bcd60e51b815260206004820152601d60248201527f476f7665726e6f723a2070726f706f73616c206e6f742061637469766500000060448201526064016102e1565b60008281526003602052604090819020600201805461ff001916610100179055517f789cf55be980739dad1d0699b93b58e806b51c9d96619bfa8fe0a28abaa7b30c90610e2c9084815260200190565b600080608083901c156136c157608092831c92015b604083901c156136d357604092831c92015b602083901c156136e557602092831c92015b601083901c156136f757601092831c92015b600883901c1561370957600892831c92015b600483901c1561371b57600492831c92015b600283901c1561372d57600292831c92015b600183901c15610a235760010192915050565b600081831061374f5781611873565b5090919050565b600061376560028484186146bd565b611873908484166143c6565b600060ff8216601f811115610a2357604051632cd44ac360e21b815260040160405180910390fd5b6000602082840312156137ab57600080fd5b81356001600160e01b03198116811461187357600080fd5b803560ff8116811461117f57600080fd5b60008083601f8401126137e657600080fd5b5081356001600160401b038111156137fd57600080fd5b60208301915083602082850101111561381557600080fd5b9250929050565b634e487b7160e01b600052604160045260246000fd5b604051601f8201601f191681016001600160401b038111828210171561385a5761385a61381c565b604052919050565b60006001600160401b0382111561387b5761387b61381c565b50601f01601f191660200190565b600061389c61389784613862565b613832565b90508281528383830111156138b057600080fd5b828260208301376000602084830101529392505050565b600082601f8301126138d857600080fd5b61187383833560208501613889565b60008060008060008060008060e0898b03121561390357600080fd5b8835975061391360208a016137c3565b965060408901356001600160401b0381111561392e57600080fd5b61393a8b828c016137d4565b90975095505060608901356001600160401b0381111561395957600080fd5b6139658b828c016138c7565b94505061397460808a016137c3565b979a969950949793969295929450505060a08201359160c0013590565b6000602082840312156139a357600080fd5b5035919050565b60005b838110156139c55781810151838201526020016139ad565b50506000910152565b600081518084526139e68160208601602086016139aa565b601f01601f19169290920160200192915050565b60208152600061187360208301846139ce565b6001600160a01b0381168114610ba857600080fd5b60008060008060808587031215613a3857600080fd5b8435613a4381613a0d565b93506020850135613a5381613a0d565b92506040850135915060608501356001600160401b03811115613a7557600080fd5b613a81878288016138c7565b91505092959194509250565b60006001600160401b03821115613aa657613aa661381c565b5060051b60200190565b600082601f830112613ac157600080fd5b8135613acf61389782613a8d565b8082825260208201915060208360051b860101925085831115613af157600080fd5b602085015b83811015610f26578035613b0981613a0d565b835260209283019201613af6565b600082601f830112613b2857600080fd5b8135613b3661389782613a8d565b8082825260208201915060208360051b860101925085831115613b5857600080fd5b602085015b83811015610f26578035835260209283019201613b5d565b600082601f830112613b8657600080fd5b8135613b9461389782613a8d565b8082825260208201915060208360051b860101925085831115613bb657600080fd5b602085015b83811015610f265780356001600160401b03811115613bd957600080fd5b613be8886020838a01016138c7565b84525060209283019201613bbb565b60008060008060808587031215613c0d57600080fd5b84356001600160401b03811115613c2357600080fd5b613c2f87828801613ab0565b94505060208501356001600160401b03811115613c4b57600080fd5b613c5787828801613b17565b93505060408501356001600160401b03811115613c7357600080fd5b613c7f87828801613b75565b949793965093946060013593505050565b600080600080600060a08688031215613ca857600080fd5b85359450613cb8602087016137c3565b9350613cc6604087016137c3565b94979396509394606081013594506080013592915050565b634e487b7160e01b600052602160045260246000fd5b6020810160088310613d1657634e487b7160e01b600052602160045260246000fd5b91905290565b60008060408385031215613d2f57600080fd5b823591506020830135613d4181613a0d565b809150509250929050565b60008060408385031215613d5f57600080fd5b82359150613d6f602084016137c3565b90509250929050565b600080600080600060808688031215613d9057600080fd5b85359450613da0602087016137c3565b935060408601356001600160401b03811115613dbb57600080fd5b613dc7888289016137d4565b90945092505060608601356001600160401b03811115613de657600080fd5b613df2888289016138c7565b9150509295509295909350565b60008060008060608587031215613e1557600080fd5b84359350613e25602086016137c3565b925060408501356001600160401b03811115613e4057600080fd5b613e4c878288016137d4565b95989497509550505050565b60008060008060808587031215613e6e57600080fd5b84356001600160401b03811115613e8457600080fd5b613e9087828801613ab0565b94505060208501356001600160401b03811115613eac57600080fd5b613eb887828801613b17565b93505060408501356001600160401b03811115613ed457600080fd5b613ee087828801613b75565b92505060608501356001600160401b03811115613efc57600080fd5b8501601f81018713613f0d57600080fd5b613a8187823560208401613889565b600081518084526020840193506020830160005b82811015613f4e578151865260209586019590910190600101613f30565b5093949350505050565b60ff60f81b8816815260e060208201526000613f7760e08301896139ce565b8281036040840152613f8981896139ce565b606084018890526001600160a01b038716608085015260a0840186905283810360c08501529050610b138185613f1c565b600080600060608486031215613fcf57600080fd5b8335613fda81613a0d565b92506020840135915060408401356001600160401b03811115613ffc57600080fd5b614008868287016138c7565b9150509250925092565b60006020828403121561402457600080fd5b813561187381613a0d565b600080600080600060a0868803121561404757600080fd5b853561405281613a0d565b9450602086013561406281613a0d565b935060408601356001600160401b0381111561407d57600080fd5b61408988828901613b17565b93505060608601356001600160401b038111156140a557600080fd5b6140b188828901613b17565b92505060808601356001600160401b03811115613de657600080fd5b600080600080606085870312156140e357600080fd5b84356140ee81613a0d565b93506020850135925060408501356001600160401b03811115613e4057600080fd5b6000806040838503121561412357600080fd5b823561412e81613a0d565b946020939093013593505050565b600080600080600060a0868803121561415457600080fd5b853561415f81613a0d565b9450602086013561416f81613a0d565b9350604086013592506060860135915060808601356001600160401b03811115613de657600080fd5b8183823760009101908152919050565b60208082526018908201527f476f7665726e6f723a206f6e6c79476f7665726e616e63650000000000000000604082015260600190565b600181811c908216806141f357607f821691505b60208210810361421357634e487b7160e01b600052602260045260246000fd5b50919050565b60208082526021908201527f476f7665726e6f723a2070726f706f73616c206e6f74207375636365737366756040820152601b60fa1b606082015260800190565b60006020828403121561426c57600080fd5b5051919050565b600081518084526020840193506020830160005b82811015613f4e5781516001600160a01b0316865260209586019590910190600101614287565b600082825180855260208501945060208160051b8301016020850160005b838110156142fe57601f198584030188526142e88383516139ce565b60209889019890935091909101906001016142cc565b50909695505050505050565b60a08152600061431d60a0830188614273565b828103602084015261432f8188613f1c565b9050828103604084015261434381876142ae565b60608401959095525050608001529392505050565b60c08152600061436b60c0830189614273565b828103602084015261437d8189613f1c565b9050828103604084015261439181886142ae565b60608401969096525050608081019290925260a0909101529392505050565b634e487b7160e01b600052601160045260246000fd5b80820180821115610a2357610a236143b0565b6000602082840312156143eb57600080fd5b81516001600160401b0381111561440157600080fd5b8201601f8101841361441257600080fd5b805161442061389782613862565b81815285602083850101111561443557600080fd5b6121088260208301602086016139aa565b81810381811115610a2357610a236143b0565b634e487b7160e01b600052603260045260246000fd5b60208082526021908201527f476f7665726e6f723a20696e76616c69642070726f706f73616c206c656e67746040820152600d60fb1b606082015260800190565b8981526001600160a01b0389166020820152610120604082018190526000906144db9083018a614273565b82810360608401526144ed818a613f1c565b9050828103608084015280885180835260208301915060208160051b84010160208b0160005b8381101561454557601f1986840301855261452f8383516139ce565b6020958601959093509190910190600101614513565b505085810360a0870152614559818b6142ae565b93505050508560c08401528460e084015282810361010084015261457d81856139ce565b9c9b505050505050505050505050565b60006020828403121561459f57600080fd5b815165ffffffffffff8116811461187357600080fd5b6080815260006145c86080830187614273565b82810360208401526145da8187613f1c565b905082810360408401526145ee81866142ae565b91505082606083015295945050505050565b84815260ff841660208201528260408201526080606082015260006110b860808301846139ce565b85815260ff8516602082015283604082015260a06060820152600061465060a08301856139ce565b828103608084015261466281856139ce565b98975050505050505050565b60006020828403121561468057600080fd5b8151801515811461187357600080fd5b8082028115828204841417610a2357610a236143b0565b634e487b7160e01b600052601260045260246000fd5b6000826146da57634e487b7160e01b600052601260045260246000fd5b50049056fe476f7665726e6f723a2072656c617920726576657274656420776974686f7574206d657373616765a2646970667358221220d76f9a60e319ac5a3932656649d2efb4de9c626a811335e4f5126b497e286ef364736f6c634300081b0033",
  "linkReferences": {},
  "deployedLinkReferences": {}
}