{
  "_format": "hh-sol-artifact-1",
  "contractName": "KnowledgeNFT",
  "sourceName": "contracts/KnowledgeNFT.sol",
  "abi": [
    {
      "inputs": [
        {
          "internalType": "address",
          "name": "initialOwner",
          "type": "address"
        }
      ],
      "stateMutability": "nonpayable",
      "type": "constructor"
    },
    {
      "anonymous": false,
      "inputs": [
        {
          "indexed": true,
          "internalType": "address",
          "name": "owner",
          "type": "address"
        },
        {
          "indexed": true,
          "internalType": "address",
          "name": "approved",
          "type": "address"
        },
        {
          "indexed": true,
          "internalType": "uint256",
          "name": "tokenId",
          "type": "uint256"
        }
      ],
      "name": "Approval",
      "type": "event"
    },
    {
      "anonymous": false,
      "inputs": [
        {
          "indexed": true,
          "internalType": "address",
          "name": "owner",
          "type": "address"
        },
        {
          "indexed": true,
          "internalType": "address",
          "name": "operator",
          "type": "address"
        },
        {
          "indexed": false,
          "internalType": "bool",
          "name": "approved",
          "type": "bool"
        }
      ],
      "name": "ApprovalForAll",
      "type": "event"
    },
    {
      "anonymous": false,
      "inputs": [
        {
          "indexed": false,
          "internalType": "uint256",
          "name": "_fromTokenId",
          "type": "uint256"
        },
        {
          "indexed": false,
          "internalType": "uint256",
          "name": "_toTokenId",
          "type": "uint256"
        }
      ],
      "name": "BatchMetadataUpdate",
      "type": "event"
    },
    {
      "anonymous": false,
      "inputs": [
        {
          "indexed": true,
          "internalType": "uint256",
          "name": "tokenId",
          "type": "uint256"
        },
        {
          "indexed": true,
          "internalType": "string",
          "name": "demandId",
          "type": "string"
        },
        {
          "indexed": false,
          "internalType": "string",
          "name": "contentHash",
          "type": "string"
        }
      ],
      "name": "KnowledgeMinted",
      "type": "event"
    },
    {
      "anonymous": false,
      "inputs": [
        {
          "indexed": false,
          "internalType": "uint256",
          "name": "_tokenId",
          "type": "uint256"
        }
      ],
      "name": "MetadataUpdate",
      "type": "event"
    },
    {
      "anonymous": false,
      "inputs": [
        {
          "indexed": true,
          "internalType": "address",
          "name": "previousOwner",
          "type": "address"
        },
        {
          "indexed": true,
          "internalType": "address",
          "name": "newOwner",
          "type": "address"
        }
      ],
      "name": "OwnershipTransferred",
      "type": "event"
    },
    {
      "anonymous": false,
      "inputs": [
        {
          "indexed": true,
          "internalType": "address",
          "name": "from",
          "type": "address"
        },
        {
          "indexed": true,
          "internalType": "address",
          "name": "to",
          "type": "address"
        },
        {
          "indexed": true,
          "internalType": "uint256",
          "name": "tokenId",
          "type": "uint256"
        }
      ],
      "name": "Transfer",
      "type": "event"
    },
    {
      "inputs": [
        {
          "internalType": "address",
          "name": "to",
          "type": "address"
        },
        {
          "internalType": "uint256",
          "name": "tokenId",
          "type": "uint256"
        }
      ],
      "name": "approve",
      "outputs": [],
      "stateMutability": "nonpayable",
      "type": "function"
    },
    {
      "inputs": [
        {
          "internalType": "address",
          "name": "owner",
          "type": "address"
        }
      ],
      "name": "balanceOf",
      "outputs": [
        {
          "internalType": "uint256",
          "name": "",
          "type": "uint256"
        }
      ],
      "stateMutability": "view",
      "type": "function"
    },
    {
      "inputs": [
        {
          "internalType": "uint256",
          "name": "tokenId",
          "type": "uint256"
        }
      ],
      "name": "getApproved",
      "outputs": [
        {
          "internalType": "address",
          "name": "",
          "type": "address"
        }
      ],
      "stateMutability": "view",
      "type": "function"
    },
    {
      "inputs": [
        {
          "internalType": "address",
          "name": "owner",
          "type": "address"
        },
        {
          "internalType": "address",
          "name": "operator",
          "type": "address"
        }
      ],
      "name": "isApprovedForAll",
      "outputs": [
        {
          "internalType": "bool",
          "name": "",
          "type": "bool"
        }
      ],
      "stateMutability": "view",
      "type": "function"
    },
    {
      "inputs": [
        {
          "internalType": "uint256",
          "name": "",
          "type": "uint256"
        }
      ],
      "name": "metadataOf",
      "outputs": [
        {
          "internalType": "string",
          "name": "contentHash",
          "type": "string"
        },
        {
          "internalType": "string",
          "name": "summary",
          "type": "string"
        },
        {
          "internalType": "string",
          "name": "demandId",
          "type": "string"
        }
      ],
      "stateMutability": "view",
      "type": "function"
    },
    {
      "inputs": [
        {
          "internalType": "address",
          "name": "to",
          "type": "address"
        },
        {
          "internalType": "string",
          "name": "_contentHash",
          "type": "string"
        },
        {
          "internalType": "string",
          "name": "_summary",
          "type": "string"
        },
        {
          "internalType": "address[]",
          "name": "_contributors",
          "type": "address[]"
        },
        {
          "internalType": "uint256[]",
          "name": "_shares",
          "type": "uint256[]"
        },
        {
          "internalType": "string",
          "name": "_demandId",
          "type": "string"
        },
        {
          "internalType": "string",
          "name": "_tokenURI",
          "type": "string"
        }
      ],
      "name": "mintKnowledge",
      "outputs": [
        {
          "internalType": "uint256",
          "name": "",
          "type": "uint256"
        }
      ],
      "stateMutability": "nonpayable",
      "type": "function"
    },
    {
      "inputs": [],
      "name": "name",
      "outputs": [
        {
          "internalType": "string",
          "name": "",
          "type": "string"
        }
      ],
      "stateMutability": "view",
      "type": "function"
    },
    {
      "inputs": [],
      "name": "owner",
      "outputs": [
        {
          "internalType": "address",
          "name": "",
          "type": "address"
        }
      ],
      "stateMutability": "view",
      "type": "function"
    },
    {
      "inputs": [
        {
          "internalType": "uint256",
          "name": "tokenId",
          "type": "uint256"
        }
      ],
      "name": "ownerOf",
      "outputs": [
        {
          "internalType": "address",
          "name": "",
          "type": "address"
        }
      ],
      "stateMutability": "view",
      "type": "function"
    },
    {
      "inputs": [],
      "name": "renounceOwnership",
      "outputs": [],
      "stateMutability": "nonpayable",
      "type": "function"
    },
    {
      "inputs": [
        {
          "internalType": "address",
          "name": "from",
          "type": "address"
        },
        {
          "internalType": "address",
          "name": "to",
          "type": "address"
        },
        {
          "internalType": "uint256",
          "name": "tokenId",
          "type": "uint256"
        }
      ],
      "name": "safeTransferFrom",
      "outputs": [],
      "stateMutability": "nonpayable",
      "type": "function"
    },
    {
      "inputs": [
        {
          "internalType": "address",
          "name": "from",
          "type": "address"
        },
        {
          "internalType": "address",
          "name": "to",
          "type": "address"
        },
        {
          "internalType": "uint256",
          "name": "tokenId",
          "type": "uint256"
        },
        {
          "internalType": "bytes",
          "name": "data",
          "type": "bytes"
        }
      ],
      "name": "safeTransferFrom",
      "outputs": [],
      "stateMutability": "nonpayable",
      "type": "function"
    },
    {
      "inputs": [
        {
          "internalType": "address",
          "name": "operator",
          "type": "address"
        },
        {
          "internalType": "bool",
          "name": "approved",
          "type": "bool"
        }
      ],
      "name": "setApprovalForAll",
      "outputs": [],
      "stateMutability": "nonpayable",
      "type": "function"
    },
    {
      "inputs": [
        {
          "internalType": "bytes4",
          "name": "interfaceId",
          "type": "bytes4"
        }
      ],
      "name": "supportsInterface",
      "outputs": [
        {
          "internalType": "bool",
          "name": "",
          "type": "bool"
        }
      ],
      "stateMutability": "view",
      "type": "function"
    },
    {
      "inputs": [],
      "name": "symbol",
      "outputs": [
        {
          "internalType": "string",
          "name": "",
          "type": "string"
        }
      ],
      "stateMutability": "view",
      "type": "function"
    },
    {
      "inputs": [
        {
          "internalType": "uint256",
          "name": "tokenId",
          "type": "uint256"
        }
      ],
      "name": "tokenURI",
      "outputs": [
        {
          "internalType": "string",
          "name": "",
          "type": "string"
        }
      ],
      "stateMutability": "view",
      "type": "function"
    },
    {
      "inputs": [],
      "name": "totalSupply",
      "outputs": [
        {
          "internalType": "uint256",
          "name": "",
          "type": "uint256"
        }
      ],
      "stateMutability": "view",
      "type": "function"
    },
    {
      "inputs": [
        {
          "internalType": "address",
          "name": "from",
          "type": "address"
        },
        {
          "internalType": "address",
          "name": "to",
          "type": "address"
        },
        {
          "internalType": "uint256",
          "name": "tokenId",
          "type": "uint256"
        }
      ],
      "name": "transferFrom",
      "outputs": [],
      "stateMutability": "nonpayable",
      "type": "function"
    },
    {
      "inputs": [
        {
          "internalType": "address",
          "name": "newOwner",
          "type": "address"
        }
      ],
      "name": "transferOwnership",
      "outputs": [],
      "stateMutability": "nonpayable",
      "type": "function"
    }
  ],
  "bytecode": "0x608060405234801561001057600080fd5b5060405161213a38038061213a83398101604081905261002f9161010b565b6040518060400160405280600c81526020016b12db9bdddb195919d953919560a21b8152506040518060400160405280600481526020016312d3919560e21b815250816000908161008091906101da565b50600161008d82826101da565b5050506100a66100a16100b560201b60201c565b6100b9565b6100af816100b9565b50610298565b3390565b600780546001600160a01b038381166001600160a01b0319831681179093556040519116919082907f8be0079c531659141344cd1fd0a4f28419497f9722a3daafe3b4186f6b6457e090600090a35050565b60006020828403121561011d57600080fd5b81516001600160a01b038116811461013457600080fd5b9392505050565b634e487b7160e01b600052604160045260246000fd5b600181811c9082168061016557607f821691505b60208210810361018557634e487b7160e01b600052602260045260246000fd5b50919050565b601f8211156101d557806000526020600020601f840160051c810160208510156101b25750805b601f840160051c820191505b818110156101d257600081556001016101be565b50505b505050565b81516001600160401b038111156101f3576101f361013b565b610207816102018454610151565b8461018b565b6020601f82116001811461023b57600083156102235750848201515b600019600385901b1c1916600184901b1784556101d2565b600084815260208120601f198516915b8281101561026b578785015182556020948501946001909201910161024b565b50848210156102895786840151600019600387901b60f8161c191681555b50505050600190811b01905550565b611e93806102a76000396000f3fe608060405234801561001057600080fd5b50600436106101215760003560e01c806370a08231116100ad578063a22cb46511610071578063a22cb46514610257578063b88d4fde1461026a578063c87b56dd1461027d578063e985e9c514610290578063f2fde38b146102cc57600080fd5b806370a0823114610210578063715018a6146102235780638da5cb5b1461022b57806395d89b411461023c5780639edabc5e1461024457600080fd5b80630ef7cc8e116100f45780630ef7cc8e146101a357806318160ddd146101c557806323b872dd146101d757806342842e0e146101ea5780636352211e146101fd57600080fd5b806301ffc9a71461012657806306fdde031461014e578063081812fc14610163578063095ea7b31461018e575b600080fd5b61013961013436600461162a565b6102df565b60405190151581526020015b60405180910390f35b61015661030a565b6040516101459190611697565b6101766101713660046116aa565b61039c565b6040516001600160a01b039091168152602001610145565b6101a161019c3660046116df565b6103c3565b005b6101b66101b13660046116aa565b6104dd565b60405161014593929190611709565b6008545b604051908152602001610145565b6101a16101e536600461174c565b610697565b6101a16101f836600461174c565b6106c8565b61017661020b3660046116aa565b6106e3565b6101c961021e366004611789565b610743565b6101a16107c9565b6007546001600160a01b0316610176565b6101566107dd565b6101c961025236600461195d565b6107ec565b6101a1610265366004611a85565b610960565b6101a1610278366004611ac1565b61096f565b61015661028b3660046116aa565b6109a7565b61013961029e366004611b3d565b6001600160a01b03918216600090815260056020908152604080832093909416825291909152205460ff1690565b6101a16102da366004611789565b610ab7565b60006001600160e01b03198216632483248360e11b1480610304575061030482610b30565b92915050565b60606000805461031990611b70565b80601f016020809104026020016040519081016040528092919081815260200182805461034590611b70565b80156103925780601f1061036757610100808354040283529160200191610392565b820191906000526020600020905b81548152906001019060200180831161037557829003601f168201915b5050505050905090565b60006103a782610b80565b506000908152600460205260409020546001600160a01b031690565b60006103ce826106e3565b9050806001600160a01b0316836001600160a01b0316036104405760405162461bcd60e51b815260206004820152602160248201527f4552433732313a20617070726f76616c20746f2063757272656e74206f776e656044820152603960f91b60648201526084015b60405180910390fd5b336001600160a01b038216148061045c575061045c813361029e565b6104ce5760405162461bcd60e51b815260206004820152603d60248201527f4552433732313a20617070726f76652063616c6c6572206973206e6f7420746f60448201527f6b656e206f776e6572206f7220617070726f76656420666f7220616c6c0000006064820152608401610437565b6104d88383610bdf565b505050565b6009602052600090815260409020805481906104f890611b70565b80601f016020809104026020016040519081016040528092919081815260200182805461052490611b70565b80156105715780601f1061054657610100808354040283529160200191610571565b820191906000526020600020905b81548152906001019060200180831161055457829003601f168201915b50505050509080600101805461058690611b70565b80601f01602080910402602001604051908101604052809291908181526020018280546105b290611b70565b80156105ff5780601f106105d4576101008083540402835291602001916105ff565b820191906000526020600020905b8154815290600101906020018083116105e257829003601f168201915b50505050509080600401805461061490611b70565b80601f016020809104026020016040519081016040528092919081815260200182805461064090611b70565b801561068d5780601f106106625761010080835404028352916020019161068d565b820191906000526020600020905b81548152906001019060200180831161067057829003601f168201915b5050505050905083565b6106a13382610c4d565b6106bd5760405162461bcd60e51b815260040161043790611baa565b6104d8838383610ccb565b6104d88383836040518060200160405280600081525061096f565b6000818152600260205260408120546001600160a01b0316806103045760405162461bcd60e51b8152602060048201526018602482015277115490cdcc8c4e881a5b9d985b1a59081d1bdad95b88125160421b6044820152606401610437565b60006001600160a01b0382166107ad5760405162461bcd60e51b815260206004820152602960248201527f4552433732313a2061646472657373207a65726f206973206e6f7420612076616044820152683634b21037bbb732b960b91b6064820152608401610437565b506001600160a01b031660009081526003602052604090205490565b6107d1610e2f565b6107db6000610e89565b565b60606001805461031990611b70565b600083518551146108315760405162461bcd60e51b815260206004820152600f60248201526e098cadccee8d040dad2e6dac2e8c6d608b1b6044820152606401610437565b60088054908190600061084383611bf7565b91905055506108528982610edb565b61085c8184610ef5565b6040805160a08101825289815260208082018a905281830189905260608201889052608082018790526000848152600990915291909120815181906108a19082611c6c565b50602082015160018201906108b69082611c6c565b50604082015180516108d291600284019160209091019061155f565b50606082015180516108ee9160038401916020909101906115c4565b50608082015160048201906109039082611c6c565b505060405161091491508590611d2b565b6040518091039020817fca8cba39a083b5b164c3bdee93fd3f3420a92769a2f8a3e7e21573ec38b4c0228a60405161094c9190611697565b60405180910390a398975050505050505050565b61096b338383610fc0565b5050565b6109793383610c4d565b6109955760405162461bcd60e51b815260040161043790611baa565b6109a18484848461108e565b50505050565b60606109b282610b80565b600082815260066020526040812080546109cb90611b70565b80601f01602080910402602001604051908101604052809291908181526020018280546109f790611b70565b8015610a445780601f10610a1957610100808354040283529160200191610a44565b820191906000526020600020905b815481529060010190602001808311610a2757829003601f168201915b505050505090506000610a6260408051602081019091526000815290565b90508051600003610a74575092915050565b815115610aa6578082604051602001610a8e929190611d47565b60405160208183030381529060405292505050919050565b610aaf846110c1565b949350505050565b610abf610e2f565b6001600160a01b038116610b245760405162461bcd60e51b815260206004820152602660248201527f4f776e61626c653a206e6577206f776e657220697320746865207a65726f206160448201526564647265737360d01b6064820152608401610437565b610b2d81610e89565b50565b60006001600160e01b031982166380ac58cd60e01b1480610b6157506001600160e01b03198216635b5e139f60e01b145b8061030457506301ffc9a760e01b6001600160e01b0319831614610304565b6000818152600260205260409020546001600160a01b0316610b2d5760405162461bcd60e51b8152602060048201526018602482015277115490cdcc8c4e881a5b9d985b1a59081d1bdad95b88125160421b6044820152606401610437565b600081815260046020526040902080546001600160a01b0319166001600160a01b0384169081179091558190610c14826106e3565b6001600160a01b03167f8c5be1e5ebec7d5bd14f71427d1e84f3dd0314c0f7b2291e5b200ac8c7c3b92560405160405180910390a45050565b600080610c59836106e3565b9050806001600160a01b0316846001600160a01b03161480610ca057506001600160a01b0380821660009081526005602090815260408083209388168352929052205460ff165b80610aaf5750836001600160a01b0316610cb98461039c565b6001600160a01b031614949350505050565b826001600160a01b0316610cde826106e3565b6001600160a01b031614610d045760405162461bcd60e51b815260040161043790611d76565b6001600160a01b038216610d665760405162461bcd60e51b8152602060048201526024808201527f4552433732313a207472616e7366657220746f20746865207a65726f206164646044820152637265737360e01b6064820152608401610437565b826001600160a01b0316610d79826106e3565b6001600160a01b031614610d9f5760405162461bcd60e51b815260040161043790611d76565b600081815260046020908152604080832080546001600160a01b03199081169091556001600160a01b0387811680865260038552838620805460001901905590871680865283862080546001019055868652600290945282852080549092168417909155905184937fddf252ad1be2c89b69c2b068fc378daa952ba7f163c4a11628f55a4df523b3ef91a4505050565b6007546001600160a01b031633146107db5760405162461bcd60e51b815260206004820181905260248201527f4f776e61626c653a2063616c6c6572206973206e6f7420746865206f776e65726044820152606401610437565b600780546001600160a01b038381166001600160a01b0319831681179093556040519116919082907f8be0079c531659141344cd1fd0a4f28419497f9722a3daafe3b4186f6b6457e090600090a35050565b61096b828260405180602001604052806000815250611135565b6000828152600260205260409020546001600160a01b0316610f705760405162461bcd60e51b815260206004820152602e60248201527f45524337323155524953746f726167653a2055524920736574206f66206e6f6e60448201526d32bc34b9ba32b73a103a37b5b2b760911b6064820152608401610437565b6000828152600660205260409020610f888282611c6c565b506040518281527ff8e1a15aba9398e019f0b49df1a4fde98ee17ae345cb5f6b5e2c27f5033e8ce79060200160405180910390a15050565b816001600160a01b0316836001600160a01b0316036110215760405162461bcd60e51b815260206004820152601960248201527f4552433732313a20617070726f766520746f2063616c6c6572000000000000006044820152606401610437565b6001600160a01b03838116600081815260056020908152604080832094871680845294825291829020805460ff191686151590811790915591519182527f17307eab39ab6107e8899845ad3d59bd9653f200f220920489ca2b5937696c31910160405180910390a3505050565b611099848484610ccb565b6110a584848484611168565b6109a15760405162461bcd60e51b815260040161043790611dbb565b60606110cc82610b80565b60006110e360408051602081019091526000815290565b90506000815111611103576040518060200160405280600081525061112e565b8061110d84611269565b60405160200161111e929190611d47565b6040516020818303038152906040525b9392505050565b61113f83836112fc565b61114c6000848484611168565b6104d85760405162461bcd60e51b815260040161043790611dbb565b60006001600160a01b0384163b1561125e57604051630a85bd0160e11b81526001600160a01b0385169063150b7a02906111ac903390899088908890600401611e0d565b6020604051808303816000875af19250505080156111e7575060408051601f3d908101601f191682019092526111e491810190611e40565b60015b611244573d808015611215576040519150601f19603f3d011682016040523d82523d6000602084013e61121a565b606091505b50805160000361123c5760405162461bcd60e51b815260040161043790611dbb565b805181602001fd5b6001600160e01b031916630a85bd0160e11b149050610aaf565b506001949350505050565b6060600061127683611487565b600101905060008167ffffffffffffffff811115611296576112966117a4565b6040519080825280601f01601f1916602001820160405280156112c0576020820181803683370190505b5090508181016020015b600019016f181899199a1a9b1b9c1cb0b131b232b360811b600a86061a8153600a85049450846112ca57509392505050565b6001600160a01b0382166113525760405162461bcd60e51b815260206004820181905260248201527f4552433732313a206d696e7420746f20746865207a65726f20616464726573736044820152606401610437565b6000818152600260205260409020546001600160a01b0316156113b75760405162461bcd60e51b815260206004820152601c60248201527f4552433732313a20746f6b656e20616c7265616479206d696e746564000000006044820152606401610437565b6000818152600260205260409020546001600160a01b03161561141c5760405162461bcd60e51b815260206004820152601c60248201527f4552433732313a20746f6b656e20616c7265616479206d696e746564000000006044820152606401610437565b6001600160a01b038216600081815260036020908152604080832080546001019055848352600290915280822080546001600160a01b0319168417905551839291907fddf252ad1be2c89b69c2b068fc378daa952ba7f163c4a11628f55a4df523b3ef908290a45050565b60008072184f03e93ff9f4daa797ed6e38ed64bf6a1f0160401b83106114c65772184f03e93ff9f4daa797ed6e38ed64bf6a1f0160401b830492506040015b6d04ee2d6d415b85acef810000000083106114f2576d04ee2d6d415b85acef8100000000830492506020015b662386f26fc10000831061151057662386f26fc10000830492506010015b6305f5e1008310611528576305f5e100830492506008015b612710831061153c57612710830492506004015b6064831061154e576064830492506002015b600a83106103045760010192915050565b8280548282559060005260206000209081019282156115b4579160200282015b828111156115b457825182546001600160a01b0319166001600160a01b0390911617825560209092019160019091019061157f565b506115c09291506115ff565b5090565b8280548282559060005260206000209081019282156115b4579160200282015b828111156115b45782518255916020019190600101906115e4565b5b808211156115c05760008155600101611600565b6001600160e01b031981168114610b2d57600080fd5b60006020828403121561163c57600080fd5b813561112e81611614565b60005b8381101561166257818101518382015260200161164a565b50506000910152565b60008151808452611683816020860160208601611647565b601f01601f19169290920160200192915050565b60208152600061112e602083018461166b565b6000602082840312156116bc57600080fd5b5035919050565b80356001600160a01b03811681146116da57600080fd5b919050565b600080604083850312156116f257600080fd5b6116fb836116c3565b946020939093013593505050565b60608152600061171c606083018661166b565b828103602084015261172e818661166b565b90508281036040840152611742818561166b565b9695505050505050565b60008060006060848603121561176157600080fd5b61176a846116c3565b9250611778602085016116c3565b929592945050506040919091013590565b60006020828403121561179b57600080fd5b61112e826116c3565b634e487b7160e01b600052604160045260246000fd5b604051601f8201601f1916810167ffffffffffffffff811182821017156117e3576117e36117a4565b604052919050565b60008067ffffffffffffffff841115611806576118066117a4565b50601f8301601f191660200161181b816117ba565b91505082815283838301111561183057600080fd5b828260208301376000602084830101529392505050565b600082601f83011261185857600080fd5b61112e838335602085016117eb565b600067ffffffffffffffff821115611881576118816117a4565b5060051b60200190565b600082601f83011261189c57600080fd5b81356118af6118aa82611867565b6117ba565b8082825260208201915060208360051b8601019250858311156118d157600080fd5b602085015b838110156118f5576118e7816116c3565b8352602092830192016118d6565b5095945050505050565b600082601f83011261191057600080fd5b813561191e6118aa82611867565b8082825260208201915060208360051b86010192508583111561194057600080fd5b602085015b838110156118f5578035835260209283019201611945565b600080600080600080600060e0888a03121561197857600080fd5b611981886116c3565b9650602088013567ffffffffffffffff81111561199d57600080fd5b6119a98a828b01611847565b965050604088013567ffffffffffffffff8111156119c657600080fd5b6119d28a828b01611847565b955050606088013567ffffffffffffffff8111156119ef57600080fd5b6119fb8a828b0161188b565b945050608088013567ffffffffffffffff811115611a1857600080fd5b611a248a828b016118ff565b93505060a088013567ffffffffffffffff811115611a4157600080fd5b611a4d8a828b01611847565b92505060c088013567ffffffffffffffff811115611a6a57600080fd5b611a768a828b01611847565b91505092959891949750929550565b60008060408385031215611a9857600080fd5b611aa1836116c3565b915060208301358015158114611ab657600080fd5b809150509250929050565b60008060008060808587031215611ad757600080fd5b611ae0856116c3565b9350611aee602086016116c3565b925060408501359150606085013567ffffffffffffffff811115611b1157600080fd5b8501601f81018713611b2257600080fd5b611b31878235602084016117eb565b91505092959194509250565b60008060408385031215611b5057600080fd5b611b59836116c3565b9150611b67602084016116c3565b90509250929050565b600181811c90821680611b8457607f821691505b602082108103611ba457634e487b7160e01b600052602260045260246000fd5b50919050565b6020808252602d908201527f4552433732313a2063616c6c6572206973206e6f7420746f6b656e206f776e6560408201526c1c881bdc88185c1c1c9bdd9959609a1b606082015260800190565b600060018201611c1757634e487b7160e01b600052601160045260246000fd5b5060010190565b601f8211156104d857806000526020600020601f840160051c81016020851015611c455750805b601f840160051c820191505b81811015611c655760008155600101611c51565b5050505050565b815167ffffffffffffffff811115611c8657611c866117a4565b611c9a81611c948454611b70565b84611c1e565b6020601f821160018114611cce5760008315611cb65750848201515b600019600385901b1c1916600184901b178455611c65565b600084815260208120601f198516915b82811015611cfe5787850151825560209485019460019092019101611cde565b5084821015611d1c5786840151600019600387901b60f8161c191681555b50505050600190811b01905550565b60008251611d3d818460208701611647565b9190910192915050565b60008351611d59818460208801611647565b835190830190611d6d818360208801611647565b01949350505050565b60208082526025908201527f4552433732313a207472616e736665722066726f6d20696e636f72726563742060408201526437bbb732b960d91b606082015260800190565b60208082526032908201527f4552433732313a207472616e7366657220746f206e6f6e20455243373231526560408201527131b2b4bb32b91034b6b83632b6b2b73a32b960711b606082015260800190565b6001600160a01b03858116825284166020820152604081018390526080606082018190526000906117429083018461166b565b600060208284031215611e5257600080fd5b815161112e8161161456fea2646970667358221220331bca9fe7ba33c132948170491a8db36c14f9dfbeab0549115e3bae7e3ee67a64736f6c634300081b0033",
  "linkReferences": {},
  "deployedLinkReferences": {}
}